{"contracts/Payout.sol":{"PayoutContract":{"abi":[{"inputs":[{"internalType":"address[]","name":"_investors","type":"address[]"},{"internalType":"uint256","name":"_n_assets","type":"uint256"}],"stateMutability":"nonpayable","type":"constructor"},{"inputs":[],"name":"addAsset","outputs":[],"stateMutability":"nonpayable","type":"function"},{"inputs":[{"internalType":"address","name":"_investorAddress","type":"address"}],"name":"addInvestor","outputs":[],"stateMutability":"nonpayable","type":"function"},{"inputs":[],"name":"conductPayment","outputs":[],"stateMutability":"payable","type":"function"},{"inputs":[{"internalType":"address","name":"_owner","type":"address"}],"name":"getBalance","outputs":[{"internalType":"uint256","name":"","type":"uint256"}],"stateMutability":"view","type":"function"},{"inputs":[{"internalType":"uint256","name":"","type":"uint256"}],"name":"investors","outputs":[{"internalType":"address","name":"","type":"address"}],"stateMutability":"view","type":"function"},{"inputs":[{"internalType":"uint256[][]","name":"_payoutMatrix","type":"uint256[][]"},{"internalType":"uint256[]","name":"_assetsCost","type":"uint256[]"}],"name":"payoutNaive","outputs":[],"stateMutability":"payable","type":"function"},{"inputs":[{"internalType":"uint256[3][]","name":"_payoutTriples","type":"uint256[3][]"},{"internalType":"uint256[]","name":"_assetsCost","type":"uint256[]"}],"name":"payoutSparse","outputs":[],"stateMutability":"payable","type":"function"}],"evm":{"bytecode":{"linkReferences":{},"object":"60806040526000805560006001553480156200001a57600080fd5b506040516200121738038062001217833981810160405281019062000040919062000347565b81516000819055508060018190555081600290805190602001906200006792919062000070565b505050620003ad565b828054828255906000526020600020908101928215620000ec579160200282015b82811115620000eb5782518260006101000a81548173ffffffffffffffffffffffffffffffffffffffff021916908373ffffffffffffffffffffffffffffffffffffffff1602179055509160200191906001019062000091565b5b509050620000fb9190620000ff565b5090565b5b808211156200011a57600081600090555060010162000100565b5090565b6000604051905090565b600080fd5b600080fd5b600080fd5b6000601f19601f8301169050919050565b7f4e487b7100000000000000000000000000000000000000000000000000000000600052604160045260246000fd5b620001828262000137565b810181811067ffffffffffffffff82111715620001a457620001a362000148565b5b80604052505050565b6000620001b96200011e565b9050620001c7828262000177565b919050565b600067ffffffffffffffff821115620001ea57620001e962000148565b5b602082029050602081019050919050565b600080fd5b600073ffffffffffffffffffffffffffffffffffffffff82169050919050565b60006200022d8262000200565b9050919050565b6200023f8162000220565b81146200024b57600080fd5b50565b6000815190506200025f8162000234565b92915050565b60006200027c6200027684620001cc565b620001ad565b90508083825260208201905060208402830185811115620002a257620002a1620001fb565b5b835b81811015620002cf5780620002ba88826200024e565b845260208401935050602081019050620002a4565b5050509392505050565b600082601f830112620002f157620002f062000132565b5b81516200030384826020860162000265565b91505092915050565b6000819050919050565b62000321816200030c565b81146200032d57600080fd5b50565b600081519050620003418162000316565b92915050565b6000806040838503121562000361576200036062000128565b5b600083015167ffffffffffffffff8111156200038257620003816200012d565b5b6200039085828601620002d9565b9250506020620003a38582860162000330565b9150509250929050565b610e5a80620003bd6000396000f3fe6080604052600436106100705760003560e01c806391f601191161004e57806391f60119146100e5578063e42c3fab146100ef578063e641bde11461010b578063f8b2cb4f1461013457610070565b80630d5528c1146100755780633feb5f2b146100915780636452037c146100ce575b600080fd5b61008f600480360381019061008a9190610a2b565b610171565b005b34801561009d57600080fd5b506100b860048036038101906100b39190610aa3565b610304565b6040516100c59190610b11565b60405180910390f35b3480156100da57600080fd5b506100e3610343565b005b6100ed61035d565b005b61010960048036038101906101049190610c0d565b610505565b005b34801561011757600080fd5b50610132600480360381019061012d9190610cb1565b61064e565b005b34801561014057600080fd5b5061015b60048036038101906101569190610cb1565b6106cb565b6040516101689190610ced565b60405180910390f35b60005b82518110156102f757600083828151811061019257610191610d08565b5b60200260200101516000600381106101ad576101ac610d08565b5b6020020151905060008483815181106101c9576101c8610d08565b5b60200260200101516001600381106101e4576101e3610d08565b5b602002015190506000858481518110610200576101ff610d08565b5b602002602001015160026003811061021b5761021a610d08565b5b6020020151905060008186848151811061023857610237610d08565b5b602002602001015161024a9190610d66565b905080600360006002878154811061026557610264610d08565b5b9060005260206000200160009054906101000a900473ffffffffffffffffffffffffffffffffffffffff1673ffffffffffffffffffffffffffffffffffffffff1673ffffffffffffffffffffffffffffffffffffffff16815260200190815260200160002060008282546102d99190610da8565b925050819055505050505080806102ef90610ddc565b915050610174565b5061030061035d565b5050565b6002818154811061031457600080fd5b906000526020600020016000915054906101000a900473ffffffffffffffffffffffffffffffffffffffff1681565b6001600081548092919061035690610ddc565b9190505550565b60005b600054811015610502576002818154811061037e5761037d610d08565b5b9060005260206000200160009054906101000a900473ffffffffffffffffffffffffffffffffffffffff1673ffffffffffffffffffffffffffffffffffffffff166108fc60036000600285815481106103da576103d9610d08565b5b9060005260206000200160009054906101000a900473ffffffffffffffffffffffffffffffffffffffff1673ffffffffffffffffffffffffffffffffffffffff1673ffffffffffffffffffffffffffffffffffffffff168152602001908152602001600020549081150290604051600060405180830381858888f1935050505015801561046b573d6000803e3d6000fd5b506000600360006002848154811061048657610485610d08565b5b9060005260206000200160009054906101000a900473ffffffffffffffffffffffffffffffffffffffff1673ffffffffffffffffffffffffffffffffffffffff1673ffffffffffffffffffffffffffffffffffffffff1681526020019081526020016000208190555080806104fa90610ddc565b915050610360565b50565b60005b600054811015610641576000805b6001548110156105985783818151811061053357610532610d08565b5b602002602001015185848151811061054e5761054d610d08565b5b6020026020010151828151811061056857610567610d08565b5b602002602001015161057a9190610d66565b826105859190610da8565b91508061059190610ddc565b9050610516565b508060036000600285815481106105b2576105b1610d08565b5b9060005260206000200160009054906101000a900473ffffffffffffffffffffffffffffffffffffffff1673ffffffffffffffffffffffffffffffffffffffff1673ffffffffffffffffffffffffffffffffffffffff16815260200190815260200160002060008282546106269190610da8565b9250508190555050808061063990610ddc565b915050610508565b5061064a61035d565b5050565b6002819080600181540180825580915050600190039060005260206000200160009091909190916101000a81548173ffffffffffffffffffffffffffffffffffffffff021916908373ffffffffffffffffffffffffffffffffffffffff1602179055506000808154809291906106c390610ddc565b919050555050565b6000600360008373ffffffffffffffffffffffffffffffffffffffff1673ffffffffffffffffffffffffffffffffffffffff168152602001908152602001600020549050919050565b6000604051905090565b600080fd5b600080fd5b600080fd5b6000601f19601f8301169050919050565b7f4e487b7100000000000000000000000000000000000000000000000000000000600052604160045260246000fd5b6107768261072d565b810181811067ffffffffffffffff821117156107955761079461073e565b5b80604052505050565b60006107a8610714565b90506107b4828261076d565b919050565b600067ffffffffffffffff8211156107d4576107d361073e565b5b602082029050602081019050919050565b600080fd5b600067ffffffffffffffff8211156108055761080461073e565b5b602082029050919050565b6000819050919050565b61082381610810565b811461082e57600080fd5b50565b6000813590506108408161081a565b92915050565b6000610859610854846107ea565b61079e565b90508060208402830185811115610873576108726107e5565b5b835b8181101561089c57806108888882610831565b845260208401935050602081019050610875565b5050509392505050565b600082601f8301126108bb576108ba610728565b5b60036108c8848285610846565b91505092915050565b60006108e46108df846107b9565b61079e565b90508083825260208201905060608402830185811115610907576109066107e5565b5b835b81811015610930578061091c88826108a6565b845260208401935050606081019050610909565b5050509392505050565b600082601f83011261094f5761094e610728565b5b813561095f8482602086016108d1565b91505092915050565b600067ffffffffffffffff8211156109835761098261073e565b5b602082029050602081019050919050565b60006109a76109a284610968565b61079e565b905080838252602082019050602084028301858111156109ca576109c96107e5565b5b835b818110156109f357806109df8882610831565b8452602084019350506020810190506109cc565b5050509392505050565b600082601f830112610a1257610a11610728565b5b8135610a22848260208601610994565b91505092915050565b60008060408385031215610a4257610a4161071e565b5b600083013567ffffffffffffffff811115610a6057610a5f610723565b5b610a6c8582860161093a565b925050602083013567ffffffffffffffff811115610a8d57610a8c610723565b5b610a99858286016109fd565b9150509250929050565b600060208284031215610ab957610ab861071e565b5b6000610ac784828501610831565b91505092915050565b600073ffffffffffffffffffffffffffffffffffffffff82169050919050565b6000610afb82610ad0565b9050919050565b610b0b81610af0565b82525050565b6000602082019050610b266000830184610b02565b92915050565b600067ffffffffffffffff821115610b4757610b4661073e565b5b602082029050602081019050919050565b6000610b6b610b6684610b2c565b61079e565b90508083825260208201905060208402830185811115610b8e57610b8d6107e5565b5b835b81811015610bd557803567ffffffffffffffff811115610bb357610bb2610728565b5b808601610bc089826109fd565b85526020850194505050602081019050610b90565b5050509392505050565b600082601f830112610bf457610bf3610728565b5b8135610c04848260208601610b58565b91505092915050565b60008060408385031215610c2457610c2361071e565b5b600083013567ffffffffffffffff811115610c4257610c41610723565b5b610c4e85828601610bdf565b925050602083013567ffffffffffffffff811115610c6f57610c6e610723565b5b610c7b858286016109fd565b9150509250929050565b610c8e81610af0565b8114610c9957600080fd5b50565b600081359050610cab81610c85565b92915050565b600060208284031215610cc757610cc661071e565b5b6000610cd584828501610c9c565b91505092915050565b610ce781610810565b82525050565b6000602082019050610d026000830184610cde565b92915050565b7f4e487b7100000000000000000000000000000000000000000000000000000000600052603260045260246000fd5b7f4e487b7100000000000000000000000000000000000000000000000000000000600052601160045260246000fd5b6000610d7182610810565b9150610d7c83610810565b9250828202610d8a81610810565b91508282048414831517610da157610da0610d37565b5b5092915050565b6000610db382610810565b9150610dbe83610810565b9250828201905080821115610dd657610dd5610d37565b5b92915050565b6000610de782610810565b91507fffffffffffffffffffffffffffffffffffffffffffffffffffffffffffffffff8203610e1957610e18610d37565b5b60018201905091905056fea2646970667358221220731fe2a225bf9ef06e9bd8563ef04314fc00107ee1787890cc208db3049b31b564736f6c63430008120033","opcodes":"PUSH1 0x80 PUSH1 0x40 MSTORE PUSH1 0x0 DUP1 SSTORE PUSH1 0x0 PUSH1 0x1 SSTORE CALLVALUE DUP1 ISZERO PUSH3 0x1A JUMPI PUSH1 0x0 DUP1 REVERT JUMPDEST POP PUSH1 0x40 MLOAD PUSH3 0x1217 CODESIZE SUB DUP1 PUSH3 0x1217 DUP4 CODECOPY DUP2 DUP2 ADD PUSH1 0x40 MSTORE DUP2 ADD SWAP1 PUSH3 0x40 SWAP2 SWAP1 PUSH3 0x347 JUMP JUMPDEST DUP2 MLOAD PUSH1 0x0 DUP2 SWAP1 SSTORE POP DUP1 PUSH1 0x1 DUP2 SWAP1 SSTORE POP DUP2 PUSH1 0x2 SWAP1 DUP1 MLOAD SWAP1 PUSH1 0x20 ADD SWAP1 PUSH3 0x67 SWAP3 SWAP2 SWAP1 PUSH3 0x70 JUMP JUMPDEST POP POP POP PUSH3 0x3AD JUMP JUMPDEST DUP3 DUP1 SLOAD DUP3 DUP3 SSTORE SWAP1 PUSH1 0x0 MSTORE PUSH1 0x20 PUSH1 0x0 KECCAK256 SWAP1 DUP2 ADD SWAP3 DUP3 ISZERO PUSH3 0xEC JUMPI SWAP2 PUSH1 0x20 MUL DUP3 ADD JUMPDEST DUP3 DUP2 GT ISZERO PUSH3 0xEB JUMPI DUP3 MLOAD DUP3 PUSH1 0x0 PUSH2 0x100 EXP DUP2 SLOAD DUP2 PUSH20 0xFFFFFFFFFFFFFFFFFFFFFFFFFFFFFFFFFFFFFFFF MUL NOT AND SWAP1 DUP4 PUSH20 0xFFFFFFFFFFFFFFFFFFFFFFFFFFFFFFFFFFFFFFFF AND MUL OR SWAP1 SSTORE POP SWAP2 PUSH1 0x20 ADD SWAP2 SWAP1 PUSH1 0x1 ADD SWAP1 PUSH3 0x91 JUMP JUMPDEST JUMPDEST POP SWAP1 POP PUSH3 0xFB SWAP2 SWAP1 PUSH3 0xFF JUMP JUMPDEST POP SWAP1 JUMP JUMPDEST JUMPDEST DUP1 DUP3 GT ISZERO PUSH3 0x11A JUMPI PUSH1 0x0 DUP2 PUSH1 0x0 SWAP1 SSTORE POP PUSH1 0x1 ADD PUSH3 0x100 JUMP JUMPDEST POP SWAP1 JUMP JUMPDEST PUSH1 0x0 PUSH1 0x40 MLOAD SWAP1 POP SWAP1 JUMP JUMPDEST PUSH1 0x0 DUP1 REVERT JUMPDEST PUSH1 0x0 DUP1 REVERT JUMPDEST PUSH1 0x0 DUP1 REVERT JUMPDEST PUSH1 0x0 PUSH1 0x1F NOT PUSH1 0x1F DUP4 ADD AND SWAP1 POP SWAP2 SWAP1 POP JUMP JUMPDEST PUSH32 0x4E487B7100000000000000000000000000000000000000000000000000000000 PUSH1 0x0 MSTORE PUSH1 0x41 PUSH1 0x4 MSTORE PUSH1 0x24 PUSH1 0x0 REVERT JUMPDEST PUSH3 0x182 DUP3 PUSH3 0x137 JUMP JUMPDEST DUP2 ADD DUP2 DUP2 LT PUSH8 0xFFFFFFFFFFFFFFFF DUP3 GT OR ISZERO PUSH3 0x1A4 JUMPI PUSH3 0x1A3 PUSH3 0x148 JUMP JUMPDEST JUMPDEST DUP1 PUSH1 0x40 MSTORE POP POP POP JUMP JUMPDEST PUSH1 0x0 PUSH3 0x1B9 PUSH3 0x11E JUMP JUMPDEST SWAP1 POP PUSH3 0x1C7 DUP3 DUP3 PUSH3 0x177 JUMP JUMPDEST SWAP2 SWAP1 POP JUMP JUMPDEST PUSH1 0x0 PUSH8 0xFFFFFFFFFFFFFFFF DUP3 GT ISZERO PUSH3 0x1EA JUMPI PUSH3 0x1E9 PUSH3 0x148 JUMP JUMPDEST JUMPDEST PUSH1 0x20 DUP3 MUL SWAP1 POP PUSH1 0x20 DUP2 ADD SWAP1 POP SWAP2 SWAP1 POP JUMP JUMPDEST PUSH1 0x0 DUP1 REVERT JUMPDEST PUSH1 0x0 PUSH20 0xFFFFFFFFFFFFFFFFFFFFFFFFFFFFFFFFFFFFFFFF DUP3 AND SWAP1 POP SWAP2 SWAP1 POP JUMP JUMPDEST PUSH1 0x0 PUSH3 0x22D DUP3 PUSH3 0x200 JUMP JUMPDEST SWAP1 POP SWAP2 SWAP1 POP JUMP JUMPDEST PUSH3 0x23F DUP2 PUSH3 0x220 JUMP JUMPDEST DUP2 EQ PUSH3 0x24B JUMPI PUSH1 0x0 DUP1 REVERT JUMPDEST POP JUMP JUMPDEST PUSH1 0x0 DUP2 MLOAD SWAP1 POP PUSH3 0x25F DUP2 PUSH3 0x234 JUMP JUMPDEST SWAP3 SWAP2 POP POP JUMP JUMPDEST PUSH1 0x0 PUSH3 0x27C PUSH3 0x276 DUP5 PUSH3 0x1CC JUMP JUMPDEST PUSH3 0x1AD JUMP JUMPDEST SWAP1 POP DUP1 DUP4 DUP3 MSTORE PUSH1 0x20 DUP3 ADD SWAP1 POP PUSH1 0x20 DUP5 MUL DUP4 ADD DUP6 DUP2 GT ISZERO PUSH3 0x2A2 JUMPI PUSH3 0x2A1 PUSH3 0x1FB JUMP JUMPDEST JUMPDEST DUP4 JUMPDEST DUP2 DUP2 LT ISZERO PUSH3 0x2CF JUMPI DUP1 PUSH3 0x2BA DUP9 DUP3 PUSH3 0x24E JUMP JUMPDEST DUP5 MSTORE PUSH1 0x20 DUP5 ADD SWAP4 POP POP PUSH1 0x20 DUP2 ADD SWAP1 POP PUSH3 0x2A4 JUMP JUMPDEST POP POP POP SWAP4 SWAP3 POP POP POP JUMP JUMPDEST PUSH1 0x0 DUP3 PUSH1 0x1F DUP4 ADD SLT PUSH3 0x2F1 JUMPI PUSH3 0x2F0 PUSH3 0x132 JUMP JUMPDEST JUMPDEST DUP2 MLOAD PUSH3 0x303 DUP5 DUP3 PUSH1 0x20 DUP7 ADD PUSH3 0x265 JUMP JUMPDEST SWAP2 POP POP SWAP3 SWAP2 POP POP JUMP JUMPDEST PUSH1 0x0 DUP2 SWAP1 POP SWAP2 SWAP1 POP JUMP JUMPDEST PUSH3 0x321 DUP2 PUSH3 0x30C JUMP JUMPDEST DUP2 EQ PUSH3 0x32D JUMPI PUSH1 0x0 DUP1 REVERT JUMPDEST POP JUMP JUMPDEST PUSH1 0x0 DUP2 MLOAD SWAP1 POP PUSH3 0x341 DUP2 PUSH3 0x316 JUMP JUMPDEST SWAP3 SWAP2 POP POP JUMP JUMPDEST PUSH1 0x0 DUP1 PUSH1 0x40 DUP4 DUP6 SUB SLT ISZERO PUSH3 0x361 JUMPI PUSH3 0x360 PUSH3 0x128 JUMP JUMPDEST JUMPDEST PUSH1 0x0 DUP4 ADD MLOAD PUSH8 0xFFFFFFFFFFFFFFFF DUP2 GT ISZERO PUSH3 0x382 JUMPI PUSH3 0x381 PUSH3 0x12D JUMP JUMPDEST JUMPDEST PUSH3 0x390 DUP6 DUP3 DUP7 ADD PUSH3 0x2D9 JUMP JUMPDEST SWAP3 POP POP PUSH1 0x20 PUSH3 0x3A3 DUP6 DUP3 DUP7 ADD PUSH3 0x330 JUMP JUMPDEST SWAP2 POP POP SWAP3 POP SWAP3 SWAP1 POP JUMP JUMPDEST PUSH2 0xE5A DUP1 PUSH3 0x3BD PUSH1 0x0 CODECOPY PUSH1 0x0 RETURN INVALID PUSH1 0x80 PUSH1 0x40 MSTORE PUSH1 0x4 CALLDATASIZE LT PUSH2 0x70 JUMPI PUSH1 0x0 CALLDATALOAD PUSH1 0xE0 SHR DUP1 PUSH4 0x91F60119 GT PUSH2 0x4E JUMPI DUP1 PUSH4 0x91F60119 EQ PUSH2 0xE5 JUMPI DUP1 PUSH4 0xE42C3FAB EQ PUSH2 0xEF JUMPI DUP1 PUSH4 0xE641BDE1 EQ PUSH2 0x10B JUMPI DUP1 PUSH4 0xF8B2CB4F EQ PUSH2 0x134 JUMPI PUSH2 0x70 JUMP JUMPDEST DUP1 PUSH4 0xD5528C1 EQ PUSH2 0x75 JUMPI DUP1 PUSH4 0x3FEB5F2B EQ PUSH2 0x91 JUMPI DUP1 PUSH4 0x6452037C EQ PUSH2 0xCE JUMPI JUMPDEST PUSH1 0x0 DUP1 REVERT JUMPDEST PUSH2 0x8F PUSH1 0x4 DUP1 CALLDATASIZE SUB DUP2 ADD SWAP1 PUSH2 0x8A SWAP2 SWAP1 PUSH2 0xA2B JUMP JUMPDEST PUSH2 0x171 JUMP JUMPDEST STOP JUMPDEST CALLVALUE DUP1 ISZERO PUSH2 0x9D JUMPI PUSH1 0x0 DUP1 REVERT JUMPDEST POP PUSH2 0xB8 PUSH1 0x4 DUP1 CALLDATASIZE SUB DUP2 ADD SWAP1 PUSH2 0xB3 SWAP2 SWAP1 PUSH2 0xAA3 JUMP JUMPDEST PUSH2 0x304 JUMP JUMPDEST PUSH1 0x40 MLOAD PUSH2 0xC5 SWAP2 SWAP1 PUSH2 0xB11 JUMP JUMPDEST PUSH1 0x40 MLOAD DUP1 SWAP2 SUB SWAP1 RETURN JUMPDEST CALLVALUE DUP1 ISZERO PUSH2 0xDA JUMPI PUSH1 0x0 DUP1 REVERT JUMPDEST POP PUSH2 0xE3 PUSH2 0x343 JUMP JUMPDEST STOP JUMPDEST PUSH2 0xED PUSH2 0x35D JUMP JUMPDEST STOP JUMPDEST PUSH2 0x109 PUSH1 0x4 DUP1 CALLDATASIZE SUB DUP2 ADD SWAP1 PUSH2 0x104 SWAP2 SWAP1 PUSH2 0xC0D JUMP JUMPDEST PUSH2 0x505 JUMP JUMPDEST STOP JUMPDEST CALLVALUE DUP1 ISZERO PUSH2 0x117 JUMPI PUSH1 0x0 DUP1 REVERT JUMPDEST POP PUSH2 0x132 PUSH1 0x4 DUP1 CALLDATASIZE SUB DUP2 ADD SWAP1 PUSH2 0x12D SWAP2 SWAP1 PUSH2 0xCB1 JUMP JUMPDEST PUSH2 0x64E JUMP JUMPDEST STOP JUMPDEST CALLVALUE DUP1 ISZERO PUSH2 0x140 JUMPI PUSH1 0x0 DUP1 REVERT JUMPDEST POP PUSH2 0x15B PUSH1 0x4 DUP1 CALLDATASIZE SUB DUP2 ADD SWAP1 PUSH2 0x156 SWAP2 SWAP1 PUSH2 0xCB1 JUMP JUMPDEST PUSH2 0x6CB JUMP JUMPDEST PUSH1 0x40 MLOAD PUSH2 0x168 SWAP2 SWAP1 PUSH2 0xCED JUMP JUMPDEST PUSH1 0x40 MLOAD DUP1 SWAP2 SUB SWAP1 RETURN JUMPDEST PUSH1 0x0 JUMPDEST DUP3 MLOAD DUP2 LT ISZERO PUSH2 0x2F7 JUMPI PUSH1 0x0 DUP4 DUP3 DUP2 MLOAD DUP2 LT PUSH2 0x192 JUMPI PUSH2 0x191 PUSH2 0xD08 JUMP JUMPDEST JUMPDEST PUSH1 0x20 MUL PUSH1 0x20 ADD ADD MLOAD PUSH1 0x0 PUSH1 0x3 DUP2 LT PUSH2 0x1AD JUMPI PUSH2 0x1AC PUSH2 0xD08 JUMP JUMPDEST JUMPDEST PUSH1 0x20 MUL ADD MLOAD SWAP1 POP PUSH1 0x0 DUP5 DUP4 DUP2 MLOAD DUP2 LT PUSH2 0x1C9 JUMPI PUSH2 0x1C8 PUSH2 0xD08 JUMP JUMPDEST JUMPDEST PUSH1 0x20 MUL PUSH1 0x20 ADD ADD MLOAD PUSH1 0x1 PUSH1 0x3 DUP2 LT PUSH2 0x1E4 JUMPI PUSH2 0x1E3 PUSH2 0xD08 JUMP JUMPDEST JUMPDEST PUSH1 0x20 MUL ADD MLOAD SWAP1 POP PUSH1 0x0 DUP6 DUP5 DUP2 MLOAD DUP2 LT PUSH2 0x200 JUMPI PUSH2 0x1FF PUSH2 0xD08 JUMP JUMPDEST JUMPDEST PUSH1 0x20 MUL PUSH1 0x20 ADD ADD MLOAD PUSH1 0x2 PUSH1 0x3 DUP2 LT PUSH2 0x21B JUMPI PUSH2 0x21A PUSH2 0xD08 JUMP JUMPDEST JUMPDEST PUSH1 0x20 MUL ADD MLOAD SWAP1 POP PUSH1 0x0 DUP2 DUP7 DUP5 DUP2 MLOAD DUP2 LT PUSH2 0x238 JUMPI PUSH2 0x237 PUSH2 0xD08 JUMP JUMPDEST JUMPDEST PUSH1 0x20 MUL PUSH1 0x20 ADD ADD MLOAD PUSH2 0x24A SWAP2 SWAP1 PUSH2 0xD66 JUMP JUMPDEST SWAP1 POP DUP1 PUSH1 0x3 PUSH1 0x0 PUSH1 0x2 DUP8 DUP2 SLOAD DUP2 LT PUSH2 0x265 JUMPI PUSH2 0x264 PUSH2 0xD08 JUMP JUMPDEST JUMPDEST SWAP1 PUSH1 0x0 MSTORE PUSH1 0x20 PUSH1 0x0 KECCAK256 ADD PUSH1 0x0 SWAP1 SLOAD SWAP1 PUSH2 0x100 EXP SWAP1 DIV PUSH20 0xFFFFFFFFFFFFFFFFFFFFFFFFFFFFFFFFFFFFFFFF AND PUSH20 0xFFFFFFFFFFFFFFFFFFFFFFFFFFFFFFFFFFFFFFFF AND PUSH20 0xFFFFFFFFFFFFFFFFFFFFFFFFFFFFFFFFFFFFFFFF AND DUP2 MSTORE PUSH1 0x20 ADD SWAP1 DUP2 MSTORE PUSH1 0x20 ADD PUSH1 0x0 KECCAK256 PUSH1 0x0 DUP3 DUP3 SLOAD PUSH2 0x2D9 SWAP2 SWAP1 PUSH2 0xDA8 JUMP JUMPDEST SWAP3 POP POP DUP2 SWAP1 SSTORE POP POP POP POP POP DUP1 DUP1 PUSH2 0x2EF SWAP1 PUSH2 0xDDC JUMP JUMPDEST SWAP2 POP POP PUSH2 0x174 JUMP JUMPDEST POP PUSH2 0x300 PUSH2 0x35D JUMP JUMPDEST POP POP JUMP JUMPDEST PUSH1 0x2 DUP2 DUP2 SLOAD DUP2 LT PUSH2 0x314 JUMPI PUSH1 0x0 DUP1 REVERT JUMPDEST SWAP1 PUSH1 0x0 MSTORE PUSH1 0x20 PUSH1 0x0 KECCAK256 ADD PUSH1 0x0 SWAP2 POP SLOAD SWAP1 PUSH2 0x100 EXP SWAP1 DIV PUSH20 0xFFFFFFFFFFFFFFFFFFFFFFFFFFFFFFFFFFFFFFFF AND DUP2 JUMP JUMPDEST PUSH1 0x1 PUSH1 0x0 DUP2 SLOAD DUP1 SWAP3 SWAP2 SWAP1 PUSH2 0x356 SWAP1 PUSH2 0xDDC JUMP JUMPDEST SWAP2 SWAP1 POP SSTORE POP JUMP JUMPDEST PUSH1 0x0 JUMPDEST PUSH1 0x0 SLOAD DUP2 LT ISZERO PUSH2 0x502 JUMPI PUSH1 0x2 DUP2 DUP2 SLOAD DUP2 LT PUSH2 0x37E JUMPI PUSH2 0x37D PUSH2 0xD08 JUMP JUMPDEST JUMPDEST SWAP1 PUSH1 0x0 MSTORE PUSH1 0x20 PUSH1 0x0 KECCAK256 ADD PUSH1 0x0 SWAP1 SLOAD SWAP1 PUSH2 0x100 EXP SWAP1 DIV PUSH20 0xFFFFFFFFFFFFFFFFFFFFFFFFFFFFFFFFFFFFFFFF AND PUSH20 0xFFFFFFFFFFFFFFFFFFFFFFFFFFFFFFFFFFFFFFFF AND PUSH2 0x8FC PUSH1 0x3 PUSH1 0x0 PUSH1 0x2 DUP6 DUP2 SLOAD DUP2 LT PUSH2 0x3DA JUMPI PUSH2 0x3D9 PUSH2 0xD08 JUMP JUMPDEST JUMPDEST SWAP1 PUSH1 0x0 MSTORE PUSH1 0x20 PUSH1 0x0 KECCAK256 ADD PUSH1 0x0 SWAP1 SLOAD SWAP1 PUSH2 0x100 EXP SWAP1 DIV PUSH20 0xFFFFFFFFFFFFFFFFFFFFFFFFFFFFFFFFFFFFFFFF AND PUSH20 0xFFFFFFFFFFFFFFFFFFFFFFFFFFFFFFFFFFFFFFFF AND PUSH20 0xFFFFFFFFFFFFFFFFFFFFFFFFFFFFFFFFFFFFFFFF AND DUP2 MSTORE PUSH1 0x20 ADD SWAP1 DUP2 MSTORE PUSH1 0x20 ADD PUSH1 0x0 KECCAK256 SLOAD SWAP1 DUP2 ISZERO MUL SWAP1 PUSH1 0x40 MLOAD PUSH1 0x0 PUSH1 0x40 MLOAD DUP1 DUP4 SUB DUP2 DUP6 DUP9 DUP9 CALL SWAP4 POP POP POP POP ISZERO DUP1 ISZERO PUSH2 0x46B JUMPI RETURNDATASIZE PUSH1 0x0 DUP1 RETURNDATACOPY RETURNDATASIZE PUSH1 0x0 REVERT JUMPDEST POP PUSH1 0x0 PUSH1 0x3 PUSH1 0x0 PUSH1 0x2 DUP5 DUP2 SLOAD DUP2 LT PUSH2 0x486 JUMPI PUSH2 0x485 PUSH2 0xD08 JUMP JUMPDEST JUMPDEST SWAP1 PUSH1 0x0 MSTORE PUSH1 0x20 PUSH1 0x0 KECCAK256 ADD PUSH1 0x0 SWAP1 SLOAD SWAP1 PUSH2 0x100 EXP SWAP1 DIV PUSH20 0xFFFFFFFFFFFFFFFFFFFFFFFFFFFFFFFFFFFFFFFF AND PUSH20 0xFFFFFFFFFFFFFFFFFFFFFFFFFFFFFFFFFFFFFFFF AND PUSH20 0xFFFFFFFFFFFFFFFFFFFFFFFFFFFFFFFFFFFFFFFF AND DUP2 MSTORE PUSH1 0x20 ADD SWAP1 DUP2 MSTORE PUSH1 0x20 ADD PUSH1 0x0 KECCAK256 DUP2 SWAP1 SSTORE POP DUP1 DUP1 PUSH2 0x4FA SWAP1 PUSH2 0xDDC JUMP JUMPDEST SWAP2 POP POP PUSH2 0x360 JUMP JUMPDEST POP JUMP JUMPDEST PUSH1 0x0 JUMPDEST PUSH1 0x0 SLOAD DUP2 LT ISZERO PUSH2 0x641 JUMPI PUSH1 0x0 DUP1 JUMPDEST PUSH1 0x1 SLOAD DUP2 LT ISZERO PUSH2 0x598 JUMPI DUP4 DUP2 DUP2 MLOAD DUP2 LT PUSH2 0x533 JUMPI PUSH2 0x532 PUSH2 0xD08 JUMP JUMPDEST JUMPDEST PUSH1 0x20 MUL PUSH1 0x20 ADD ADD MLOAD DUP6 DUP5 DUP2 MLOAD DUP2 LT PUSH2 0x54E JUMPI PUSH2 0x54D PUSH2 0xD08 JUMP JUMPDEST JUMPDEST PUSH1 0x20 MUL PUSH1 0x20 ADD ADD MLOAD DUP3 DUP2 MLOAD DUP2 LT PUSH2 0x568 JUMPI PUSH2 0x567 PUSH2 0xD08 JUMP JUMPDEST JUMPDEST PUSH1 0x20 MUL PUSH1 0x20 ADD ADD MLOAD PUSH2 0x57A SWAP2 SWAP1 PUSH2 0xD66 JUMP JUMPDEST DUP3 PUSH2 0x585 SWAP2 SWAP1 PUSH2 0xDA8 JUMP JUMPDEST SWAP2 POP DUP1 PUSH2 0x591 SWAP1 PUSH2 0xDDC JUMP JUMPDEST SWAP1 POP PUSH2 0x516 JUMP JUMPDEST POP DUP1 PUSH1 0x3 PUSH1 0x0 PUSH1 0x2 DUP6 DUP2 SLOAD DUP2 LT PUSH2 0x5B2 JUMPI PUSH2 0x5B1 PUSH2 0xD08 JUMP JUMPDEST JUMPDEST SWAP1 PUSH1 0x0 MSTORE PUSH1 0x20 PUSH1 0x0 KECCAK256 ADD PUSH1 0x0 SWAP1 SLOAD SWAP1 PUSH2 0x100 EXP SWAP1 DIV PUSH20 0xFFFFFFFFFFFFFFFFFFFFFFFFFFFFFFFFFFFFFFFF AND PUSH20 0xFFFFFFFFFFFFFFFFFFFFFFFFFFFFFFFFFFFFFFFF AND PUSH20 0xFFFFFFFFFFFFFFFFFFFFFFFFFFFFFFFFFFFFFFFF AND DUP2 MSTORE PUSH1 0x20 ADD SWAP1 DUP2 MSTORE PUSH1 0x20 ADD PUSH1 0x0 KECCAK256 PUSH1 0x0 DUP3 DUP3 SLOAD PUSH2 0x626 SWAP2 SWAP1 PUSH2 0xDA8 JUMP JUMPDEST SWAP3 POP POP DUP2 SWAP1 SSTORE POP POP DUP1 DUP1 PUSH2 0x639 SWAP1 PUSH2 0xDDC JUMP JUMPDEST SWAP2 POP POP PUSH2 0x508 JUMP JUMPDEST POP PUSH2 0x64A PUSH2 0x35D JUMP JUMPDEST POP POP JUMP JUMPDEST PUSH1 0x2 DUP2 SWAP1 DUP1 PUSH1 0x1 DUP2 SLOAD ADD DUP1 DUP3 SSTORE DUP1 SWAP2 POP POP PUSH1 0x1 SWAP1 SUB SWAP1 PUSH1 0x0 MSTORE PUSH1 0x20 PUSH1 0x0 KECCAK256 ADD PUSH1 0x0 SWAP1 SWAP2 SWAP1 SWAP2 SWAP1 SWAP2 PUSH2 0x100 EXP DUP2 SLOAD DUP2 PUSH20 0xFFFFFFFFFFFFFFFFFFFFFFFFFFFFFFFFFFFFFFFF MUL NOT AND SWAP1 DUP4 PUSH20 0xFFFFFFFFFFFFFFFFFFFFFFFFFFFFFFFFFFFFFFFF AND MUL OR SWAP1 SSTORE POP PUSH1 0x0 DUP1 DUP2 SLOAD DUP1 SWAP3 SWAP2 SWAP1 PUSH2 0x6C3 SWAP1 PUSH2 0xDDC JUMP JUMPDEST SWAP2 SWAP1 POP SSTORE POP POP JUMP JUMPDEST PUSH1 0x0 PUSH1 0x3 PUSH1 0x0 DUP4 PUSH20 0xFFFFFFFFFFFFFFFFFFFFFFFFFFFFFFFFFFFFFFFF AND PUSH20 0xFFFFFFFFFFFFFFFFFFFFFFFFFFFFFFFFFFFFFFFF AND DUP2 MSTORE PUSH1 0x20 ADD SWAP1 DUP2 MSTORE PUSH1 0x20 ADD PUSH1 0x0 KECCAK256 SLOAD SWAP1 POP SWAP2 SWAP1 POP JUMP JUMPDEST PUSH1 0x0 PUSH1 0x40 MLOAD SWAP1 POP SWAP1 JUMP JUMPDEST PUSH1 0x0 DUP1 REVERT JUMPDEST PUSH1 0x0 DUP1 REVERT JUMPDEST PUSH1 0x0 DUP1 REVERT JUMPDEST PUSH1 0x0 PUSH1 0x1F NOT PUSH1 0x1F DUP4 ADD AND SWAP1 POP SWAP2 SWAP1 POP JUMP JUMPDEST PUSH32 0x4E487B7100000000000000000000000000000000000000000000000000000000 PUSH1 0x0 MSTORE PUSH1 0x41 PUSH1 0x4 MSTORE PUSH1 0x24 PUSH1 0x0 REVERT JUMPDEST PUSH2 0x776 DUP3 PUSH2 0x72D JUMP JUMPDEST DUP2 ADD DUP2 DUP2 LT PUSH8 0xFFFFFFFFFFFFFFFF DUP3 GT OR ISZERO PUSH2 0x795 JUMPI PUSH2 0x794 PUSH2 0x73E JUMP JUMPDEST JUMPDEST DUP1 PUSH1 0x40 MSTORE POP POP POP JUMP JUMPDEST PUSH1 0x0 PUSH2 0x7A8 PUSH2 0x714 JUMP JUMPDEST SWAP1 POP PUSH2 0x7B4 DUP3 DUP3 PUSH2 0x76D JUMP JUMPDEST SWAP2 SWAP1 POP JUMP JUMPDEST PUSH1 0x0 PUSH8 0xFFFFFFFFFFFFFFFF DUP3 GT ISZERO PUSH2 0x7D4 JUMPI PUSH2 0x7D3 PUSH2 0x73E JUMP JUMPDEST JUMPDEST PUSH1 0x20 DUP3 MUL SWAP1 POP PUSH1 0x20 DUP2 ADD SWAP1 POP SWAP2 SWAP1 POP JUMP JUMPDEST PUSH1 0x0 DUP1 REVERT JUMPDEST PUSH1 0x0 PUSH8 0xFFFFFFFFFFFFFFFF DUP3 GT ISZERO PUSH2 0x805 JUMPI PUSH2 0x804 PUSH2 0x73E JUMP JUMPDEST JUMPDEST PUSH1 0x20 DUP3 MUL SWAP1 POP SWAP2 SWAP1 POP JUMP JUMPDEST PUSH1 0x0 DUP2 SWAP1 POP SWAP2 SWAP1 POP JUMP JUMPDEST PUSH2 0x823 DUP2 PUSH2 0x810 JUMP JUMPDEST DUP2 EQ PUSH2 0x82E JUMPI PUSH1 0x0 DUP1 REVERT JUMPDEST POP JUMP JUMPDEST PUSH1 0x0 DUP2 CALLDATALOAD SWAP1 POP PUSH2 0x840 DUP2 PUSH2 0x81A JUMP JUMPDEST SWAP3 SWAP2 POP POP JUMP JUMPDEST PUSH1 0x0 PUSH2 0x859 PUSH2 0x854 DUP5 PUSH2 0x7EA JUMP JUMPDEST PUSH2 0x79E JUMP JUMPDEST SWAP1 POP DUP1 PUSH1 0x20 DUP5 MUL DUP4 ADD DUP6 DUP2 GT ISZERO PUSH2 0x873 JUMPI PUSH2 0x872 PUSH2 0x7E5 JUMP JUMPDEST JUMPDEST DUP4 JUMPDEST DUP2 DUP2 LT ISZERO PUSH2 0x89C JUMPI DUP1 PUSH2 0x888 DUP9 DUP3 PUSH2 0x831 JUMP JUMPDEST DUP5 MSTORE PUSH1 0x20 DUP5 ADD SWAP4 POP POP PUSH1 0x20 DUP2 ADD SWAP1 POP PUSH2 0x875 JUMP JUMPDEST POP POP POP SWAP4 SWAP3 POP POP POP JUMP JUMPDEST PUSH1 0x0 DUP3 PUSH1 0x1F DUP4 ADD SLT PUSH2 0x8BB JUMPI PUSH2 0x8BA PUSH2 0x728 JUMP JUMPDEST JUMPDEST PUSH1 0x3 PUSH2 0x8C8 DUP5 DUP3 DUP6 PUSH2 0x846 JUMP JUMPDEST SWAP2 POP POP SWAP3 SWAP2 POP POP JUMP JUMPDEST PUSH1 0x0 PUSH2 0x8E4 PUSH2 0x8DF DUP5 PUSH2 0x7B9 JUMP JUMPDEST PUSH2 0x79E JUMP JUMPDEST SWAP1 POP DUP1 DUP4 DUP3 MSTORE PUSH1 0x20 DUP3 ADD SWAP1 POP PUSH1 0x60 DUP5 MUL DUP4 ADD DUP6 DUP2 GT ISZERO PUSH2 0x907 JUMPI PUSH2 0x906 PUSH2 0x7E5 JUMP JUMPDEST JUMPDEST DUP4 JUMPDEST DUP2 DUP2 LT ISZERO PUSH2 0x930 JUMPI DUP1 PUSH2 0x91C DUP9 DUP3 PUSH2 0x8A6 JUMP JUMPDEST DUP5 MSTORE PUSH1 0x20 DUP5 ADD SWAP4 POP POP PUSH1 0x60 DUP2 ADD SWAP1 POP PUSH2 0x909 JUMP JUMPDEST POP POP POP SWAP4 SWAP3 POP POP POP JUMP JUMPDEST PUSH1 0x0 DUP3 PUSH1 0x1F DUP4 ADD SLT PUSH2 0x94F JUMPI PUSH2 0x94E PUSH2 0x728 JUMP JUMPDEST JUMPDEST DUP2 CALLDATALOAD PUSH2 0x95F DUP5 DUP3 PUSH1 0x20 DUP7 ADD PUSH2 0x8D1 JUMP JUMPDEST SWAP2 POP POP SWAP3 SWAP2 POP POP JUMP JUMPDEST PUSH1 0x0 PUSH8 0xFFFFFFFFFFFFFFFF DUP3 GT ISZERO PUSH2 0x983 JUMPI PUSH2 0x982 PUSH2 0x73E JUMP JUMPDEST JUMPDEST PUSH1 0x20 DUP3 MUL SWAP1 POP PUSH1 0x20 DUP2 ADD SWAP1 POP SWAP2 SWAP1 POP JUMP JUMPDEST PUSH1 0x0 PUSH2 0x9A7 PUSH2 0x9A2 DUP5 PUSH2 0x968 JUMP JUMPDEST PUSH2 0x79E JUMP JUMPDEST SWAP1 POP DUP1 DUP4 DUP3 MSTORE PUSH1 0x20 DUP3 ADD SWAP1 POP PUSH1 0x20 DUP5 MUL DUP4 ADD DUP6 DUP2 GT ISZERO PUSH2 0x9CA JUMPI PUSH2 0x9C9 PUSH2 0x7E5 JUMP JUMPDEST JUMPDEST DUP4 JUMPDEST DUP2 DUP2 LT ISZERO PUSH2 0x9F3 JUMPI DUP1 PUSH2 0x9DF DUP9 DUP3 PUSH2 0x831 JUMP JUMPDEST DUP5 MSTORE PUSH1 0x20 DUP5 ADD SWAP4 POP POP PUSH1 0x20 DUP2 ADD SWAP1 POP PUSH2 0x9CC JUMP JUMPDEST POP POP POP SWAP4 SWAP3 POP POP POP JUMP JUMPDEST PUSH1 0x0 DUP3 PUSH1 0x1F DUP4 ADD SLT PUSH2 0xA12 JUMPI PUSH2 0xA11 PUSH2 0x728 JUMP JUMPDEST JUMPDEST DUP2 CALLDATALOAD PUSH2 0xA22 DUP5 DUP3 PUSH1 0x20 DUP7 ADD PUSH2 0x994 JUMP JUMPDEST SWAP2 POP POP SWAP3 SWAP2 POP POP JUMP JUMPDEST PUSH1 0x0 DUP1 PUSH1 0x40 DUP4 DUP6 SUB SLT ISZERO PUSH2 0xA42 JUMPI PUSH2 0xA41 PUSH2 0x71E JUMP JUMPDEST JUMPDEST PUSH1 0x0 DUP4 ADD CALLDATALOAD PUSH8 0xFFFFFFFFFFFFFFFF DUP2 GT ISZERO PUSH2 0xA60 JUMPI PUSH2 0xA5F PUSH2 0x723 JUMP JUMPDEST JUMPDEST PUSH2 0xA6C DUP6 DUP3 DUP7 ADD PUSH2 0x93A JUMP JUMPDEST SWAP3 POP POP PUSH1 0x20 DUP4 ADD CALLDATALOAD PUSH8 0xFFFFFFFFFFFFFFFF DUP2 GT ISZERO PUSH2 0xA8D JUMPI PUSH2 0xA8C PUSH2 0x723 JUMP JUMPDEST JUMPDEST PUSH2 0xA99 DUP6 DUP3 DUP7 ADD PUSH2 0x9FD JUMP JUMPDEST SWAP2 POP POP SWAP3 POP SWAP3 SWAP1 POP JUMP JUMPDEST PUSH1 0x0 PUSH1 0x20 DUP3 DUP5 SUB SLT ISZERO PUSH2 0xAB9 JUMPI PUSH2 0xAB8 PUSH2 0x71E JUMP JUMPDEST JUMPDEST PUSH1 0x0 PUSH2 0xAC7 DUP5 DUP3 DUP6 ADD PUSH2 0x831 JUMP JUMPDEST SWAP2 POP POP SWAP3 SWAP2 POP POP JUMP JUMPDEST PUSH1 0x0 PUSH20 0xFFFFFFFFFFFFFFFFFFFFFFFFFFFFFFFFFFFFFFFF DUP3 AND SWAP1 POP SWAP2 SWAP1 POP JUMP JUMPDEST PUSH1 0x0 PUSH2 0xAFB DUP3 PUSH2 0xAD0 JUMP JUMPDEST SWAP1 POP SWAP2 SWAP1 POP JUMP JUMPDEST PUSH2 0xB0B DUP2 PUSH2 0xAF0 JUMP JUMPDEST DUP3 MSTORE POP POP JUMP JUMPDEST PUSH1 0x0 PUSH1 0x20 DUP3 ADD SWAP1 POP PUSH2 0xB26 PUSH1 0x0 DUP4 ADD DUP5 PUSH2 0xB02 JUMP JUMPDEST SWAP3 SWAP2 POP POP JUMP JUMPDEST PUSH1 0x0 PUSH8 0xFFFFFFFFFFFFFFFF DUP3 GT ISZERO PUSH2 0xB47 JUMPI PUSH2 0xB46 PUSH2 0x73E JUMP JUMPDEST JUMPDEST PUSH1 0x20 DUP3 MUL SWAP1 POP PUSH1 0x20 DUP2 ADD SWAP1 POP SWAP2 SWAP1 POP JUMP JUMPDEST PUSH1 0x0 PUSH2 0xB6B PUSH2 0xB66 DUP5 PUSH2 0xB2C JUMP JUMPDEST PUSH2 0x79E JUMP JUMPDEST SWAP1 POP DUP1 DUP4 DUP3 MSTORE PUSH1 0x20 DUP3 ADD SWAP1 POP PUSH1 0x20 DUP5 MUL DUP4 ADD DUP6 DUP2 GT ISZERO PUSH2 0xB8E JUMPI PUSH2 0xB8D PUSH2 0x7E5 JUMP JUMPDEST JUMPDEST DUP4 JUMPDEST DUP2 DUP2 LT ISZERO PUSH2 0xBD5 JUMPI DUP1 CALLDATALOAD PUSH8 0xFFFFFFFFFFFFFFFF DUP2 GT ISZERO PUSH2 0xBB3 JUMPI PUSH2 0xBB2 PUSH2 0x728 JUMP JUMPDEST JUMPDEST DUP1 DUP7 ADD PUSH2 0xBC0 DUP10 DUP3 PUSH2 0x9FD JUMP JUMPDEST DUP6 MSTORE PUSH1 0x20 DUP6 ADD SWAP5 POP POP POP PUSH1 0x20 DUP2 ADD SWAP1 POP PUSH2 0xB90 JUMP JUMPDEST POP POP POP SWAP4 SWAP3 POP POP POP JUMP JUMPDEST PUSH1 0x0 DUP3 PUSH1 0x1F DUP4 ADD SLT PUSH2 0xBF4 JUMPI PUSH2 0xBF3 PUSH2 0x728 JUMP JUMPDEST JUMPDEST DUP2 CALLDATALOAD PUSH2 0xC04 DUP5 DUP3 PUSH1 0x20 DUP7 ADD PUSH2 0xB58 JUMP JUMPDEST SWAP2 POP POP SWAP3 SWAP2 POP POP JUMP JUMPDEST PUSH1 0x0 DUP1 PUSH1 0x40 DUP4 DUP6 SUB SLT ISZERO PUSH2 0xC24 JUMPI PUSH2 0xC23 PUSH2 0x71E JUMP JUMPDEST JUMPDEST PUSH1 0x0 DUP4 ADD CALLDATALOAD PUSH8 0xFFFFFFFFFFFFFFFF DUP2 GT ISZERO PUSH2 0xC42 JUMPI PUSH2 0xC41 PUSH2 0x723 JUMP JUMPDEST JUMPDEST PUSH2 0xC4E DUP6 DUP3 DUP7 ADD PUSH2 0xBDF JUMP JUMPDEST SWAP3 POP POP PUSH1 0x20 DUP4 ADD CALLDATALOAD PUSH8 0xFFFFFFFFFFFFFFFF DUP2 GT ISZERO PUSH2 0xC6F JUMPI PUSH2 0xC6E PUSH2 0x723 JUMP JUMPDEST JUMPDEST PUSH2 0xC7B DUP6 DUP3 DUP7 ADD PUSH2 0x9FD JUMP JUMPDEST SWAP2 POP POP SWAP3 POP SWAP3 SWAP1 POP JUMP JUMPDEST PUSH2 0xC8E DUP2 PUSH2 0xAF0 JUMP JUMPDEST DUP2 EQ PUSH2 0xC99 JUMPI PUSH1 0x0 DUP1 REVERT JUMPDEST POP JUMP JUMPDEST PUSH1 0x0 DUP2 CALLDATALOAD SWAP1 POP PUSH2 0xCAB DUP2 PUSH2 0xC85 JUMP JUMPDEST SWAP3 SWAP2 POP POP JUMP JUMPDEST PUSH1 0x0 PUSH1 0x20 DUP3 DUP5 SUB SLT ISZERO PUSH2 0xCC7 JUMPI PUSH2 0xCC6 PUSH2 0x71E JUMP JUMPDEST JUMPDEST PUSH1 0x0 PUSH2 0xCD5 DUP5 DUP3 DUP6 ADD PUSH2 0xC9C JUMP JUMPDEST SWAP2 POP POP SWAP3 SWAP2 POP POP JUMP JUMPDEST PUSH2 0xCE7 DUP2 PUSH2 0x810 JUMP JUMPDEST DUP3 MSTORE POP POP JUMP JUMPDEST PUSH1 0x0 PUSH1 0x20 DUP3 ADD SWAP1 POP PUSH2 0xD02 PUSH1 0x0 DUP4 ADD DUP5 PUSH2 0xCDE JUMP JUMPDEST SWAP3 SWAP2 POP POP JUMP JUMPDEST PUSH32 0x4E487B7100000000000000000000000000000000000000000000000000000000 PUSH1 0x0 MSTORE PUSH1 0x32 PUSH1 0x4 MSTORE PUSH1 0x24 PUSH1 0x0 REVERT JUMPDEST PUSH32 0x4E487B7100000000000000000000000000000000000000000000000000000000 PUSH1 0x0 MSTORE PUSH1 0x11 PUSH1 0x4 MSTORE PUSH1 0x24 PUSH1 0x0 REVERT JUMPDEST PUSH1 0x0 PUSH2 0xD71 DUP3 PUSH2 0x810 JUMP JUMPDEST SWAP2 POP PUSH2 0xD7C DUP4 PUSH2 0x810 JUMP JUMPDEST SWAP3 POP DUP3 DUP3 MUL PUSH2 0xD8A DUP2 PUSH2 0x810 JUMP JUMPDEST SWAP2 POP DUP3 DUP3 DIV DUP5 EQ DUP4 ISZERO OR PUSH2 0xDA1 JUMPI PUSH2 0xDA0 PUSH2 0xD37 JUMP JUMPDEST JUMPDEST POP SWAP3 SWAP2 POP POP JUMP JUMPDEST PUSH1 0x0 PUSH2 0xDB3 DUP3 PUSH2 0x810 JUMP JUMPDEST SWAP2 POP PUSH2 0xDBE DUP4 PUSH2 0x810 JUMP JUMPDEST SWAP3 POP DUP3 DUP3 ADD SWAP1 POP DUP1 DUP3 GT ISZERO PUSH2 0xDD6 JUMPI PUSH2 0xDD5 PUSH2 0xD37 JUMP JUMPDEST JUMPDEST SWAP3 SWAP2 POP POP JUMP JUMPDEST PUSH1 0x0 PUSH2 0xDE7 DUP3 PUSH2 0x810 JUMP JUMPDEST SWAP2 POP PUSH32 0xFFFFFFFFFFFFFFFFFFFFFFFFFFFFFFFFFFFFFFFFFFFFFFFFFFFFFFFFFFFFFFFF DUP3 SUB PUSH2 0xE19 JUMPI PUSH2 0xE18 PUSH2 0xD37 JUMP JUMPDEST JUMPDEST PUSH1 0x1 DUP3 ADD SWAP1 POP SWAP2 SWAP1 POP JUMP INVALID LOG2 PUSH5 0x6970667358 0x22 SLT KECCAK256 PUSH20 0x1FE2A225BF9EF06E9BD8563EF04314FC00107EE1 PUSH25 0x7890CC208DB3049B31B564736F6C6343000812003300000000 "},"methodIdentifiers":{"addAsset()":"6452037c","addInvestor(address)":"e641bde1","conductPayment()":"91f60119","getBalance(address)":"f8b2cb4f","investors(uint256)":"3feb5f2b","payoutNaive(uint256[][],uint256[])":"e42c3fab","payoutSparse(uint256[3][],uint256[])":"0d5528c1"}}}}}