{
  "_format": "hh-sol-artifact-1",
  "contractName": "PayoutContract",
  "sourceName": "contracts/Payout.sol",
  "abi": [
    {
      "inputs": [
        {
          "internalType": "address[]",
          "name": "_investor_address",
          "type": "address[]"
        },
        {
          "internalType": "uint256",
          "name": "_n_assets",
          "type": "uint256"
        }
      ],
      "stateMutability": "nonpayable",
      "type": "constructor"
    },
    {
      "inputs": [
        {
          "internalType": "address",
          "name": "_owner",
          "type": "address"
        }
      ],
      "name": "getBalance",
      "outputs": [
        {
          "internalType": "uint256",
          "name": "",
          "type": "uint256"
        }
      ],
      "stateMutability": "view",
      "type": "function"
    },
    {
      "inputs": [
        {
          "internalType": "uint256",
          "name": "",
          "type": "uint256"
        }
      ],
      "name": "investor_address",
      "outputs": [
        {
          "internalType": "address",
          "name": "",
          "type": "address"
        }
      ],
      "stateMutability": "view",
      "type": "function"
    },
    {
      "inputs": [
        {
          "internalType": "int256[][]",
          "name": "L",
          "type": "int256[][]"
        },
        {
          "internalType": "int256[][]",
          "name": "R",
          "type": "int256[][]"
        },
        {
          "internalType": "int256[]",
          "name": "_assetsCost",
          "type": "int256[]"
        },
        {
          "internalType": "uint256[]",
          "name": "investors",
          "type": "uint256[]"
        }
      ],
      "name": "payoutLowRank",
      "outputs": [],
      "stateMutability": "payable",
      "type": "function"
    },
    {
      "inputs": [
        {
          "internalType": "uint256[][]",
          "name": "_payoutMatrix",
          "type": "uint256[][]"
        },
        {
          "internalType": "uint256[]",
          "name": "_assetsCost",
          "type": "uint256[]"
        },
        {
          "internalType": "uint256[]",
          "name": "investors",
          "type": "uint256[]"
        }
      ],
      "name": "payoutNaive",
      "outputs": [],
      "stateMutability": "payable",
      "type": "function"
    },
    {
      "inputs": [
        {
          "internalType": "uint256[]",
          "name": "_column_id",
          "type": "uint256[]"
        },
        {
          "internalType": "uint256[][]",
          "name": "_columns",
          "type": "uint256[][]"
        },
        {
          "internalType": "uint256[]",
          "name": "_assetsCost",
          "type": "uint256[]"
        },
        {
          "internalType": "uint256[]",
          "name": "investors",
          "type": "uint256[]"
        }
      ],
      "name": "payoutRepeatedColumns",
      "outputs": [],
      "stateMutability": "payable",
      "type": "function"
    },
    {
      "inputs": [
        {
          "internalType": "uint256[][]",
          "name": "_payoutMatrix",
          "type": "uint256[][]"
        },
        {
          "internalType": "uint256[]",
          "name": "_assetsCost",
          "type": "uint256[]"
        },
        {
          "internalType": "uint256[]",
          "name": "investors",
          "type": "uint256[]"
        }
      ],
      "name": "payoutRepeatedInvestors",
      "outputs": [],
      "stateMutability": "payable",
      "type": "function"
    },
    {
      "inputs": [
        {
          "internalType": "uint256[3][]",
          "name": "_payoutTriples",
          "type": "uint256[3][]"
        },
        {
          "internalType": "uint256[]",
          "name": "_assetsCost",
          "type": "uint256[]"
        },
        {
          "internalType": "uint256[]",
          "name": "investors",
          "type": "uint256[]"
        }
      ],
      "name": "payoutSparse",
      "outputs": [],
      "stateMutability": "payable",
      "type": "function"
    }
  ],
  "bytecode": "0x60806040526000805560006001553480156200001a57600080fd5b5060405162001d3938038062001d39833981810160405281019062000040919062000347565b81600290805190602001906200005892919062000070565b508151600081905550806001819055505050620003ad565b828054828255906000526020600020908101928215620000ec579160200282015b82811115620000eb5782518260006101000a81548173ffffffffffffffffffffffffffffffffffffffff021916908373ffffffffffffffffffffffffffffffffffffffff1602179055509160200191906001019062000091565b5b509050620000fb9190620000ff565b5090565b5b808211156200011a57600081600090555060010162000100565b5090565b6000604051905090565b600080fd5b600080fd5b600080fd5b6000601f19601f8301169050919050565b7f4e487b7100000000000000000000000000000000000000000000000000000000600052604160045260246000fd5b620001828262000137565b810181811067ffffffffffffffff82111715620001a457620001a362000148565b5b80604052505050565b6000620001b96200011e565b9050620001c7828262000177565b919050565b600067ffffffffffffffff821115620001ea57620001e962000148565b5b602082029050602081019050919050565b600080fd5b600073ffffffffffffffffffffffffffffffffffffffff82169050919050565b60006200022d8262000200565b9050919050565b6200023f8162000220565b81146200024b57600080fd5b50565b6000815190506200025f8162000234565b92915050565b60006200027c6200027684620001cc565b620001ad565b90508083825260208201905060208402830185811115620002a257620002a1620001fb565b5b835b81811015620002cf5780620002ba88826200024e565b845260208401935050602081019050620002a4565b5050509392505050565b600082601f830112620002f157620002f062000132565b5b81516200030384826020860162000265565b91505092915050565b6000819050919050565b62000321816200030c565b81146200032d57600080fd5b50565b600081519050620003418162000316565b92915050565b6000806040838503121562000361576200036062000128565b5b600083015167ffffffffffffffff8111156200038257620003816200012d565b5b6200039085828601620002d9565b9250506020620003a38582860162000330565b9150509250929050565b61197c80620003bd6000396000f3fe6080604052600436106100705760003560e01c8063734027171161004e57806373402717146100c957806394354e18146100e5578063cda2bcee14610122578063f8b2cb4f1461013e57610070565b8063121c9a59146100755780631ca99ad41461009157806353edc727146100ad575b600080fd5b61008f600480360381019061008a919061101f565b61017b565b005b6100ab60048036038101906100a69190611121565b610556565b005b6100c760048036038101906100c29190611260565b6106fe565b005b6100e360048036038101906100de91906113c0565b6108a1565b005b3480156100f157600080fd5b5061010c600480360381019061010791906114a9565b610b5c565b6040516101199190611517565b60405180910390f35b61013c60048036038101906101379190611532565b610b9b565b005b34801561014a57600080fd5b506101656004803603810190610160919061160f565b610cf7565b604051610172919061164b565b60405180910390f35b6000805467ffffffffffffffff81111561019857610197610d6a565b5b6040519080825280602002602001820160405280156101c65781602001602082028036833780820191505090505b5090506000805b6000548110156103f9576000838583815181106101ed576101ec611666565b5b60200260200101518151811061020657610205611666565b5b60200260200101519050600081146102c55780610222906116c4565b905060005b6001548110156102bf5788818151811061024457610243611666565b5b6020026020010151838151811061025e5761025d611666565b5b602002602001015189828151811061027957610278611666565b5b6020026020010151838151811061029357610292611666565b5b602002602001018181516102a791906116ed565b91508181525050806102b890611721565b9050610227565b506103e7565b82821461035a5760005b600154811015610358578881815181106102ec576102eb611666565b5b6020026020010151838151811061030657610305611666565b5b602002602001015189828151811061032157610320611666565b5b6020026020010151858151811061033b5761033a611666565b5b6020026020010181815250508061035190611721565b90506102cf565b505b60018361036791906116ed565b8486848151811061037b5761037a611666565b5b60200260200101518151811061039457610393611666565b5b6020026020010181815250508482815181106103b3576103b2611666565b5b60200260200101518584815181106103ce576103cd611666565b5b602002602001018181525050826103e490611721565b92505b50806103f290611721565b90506101cd565b5060005b8181101561054d576000805b60015481101561048a5787878281811061042657610425611666565b5b905060200201358982815181106104405761043f611666565b5b6020026020010151848151811061045a57610459611666565b5b602002602001015161046c9190611769565b8261047791906116ed565b91508061048390611721565b9050610409565b50806003600060028886815181106104a5576104a4611666565b5b6020026020010151815481106104be576104bd611666565b5b9060005260206000200160009054906101000a900473ffffffffffffffffffffffffffffffffffffffff1673ffffffffffffffffffffffffffffffffffffffff1673ffffffffffffffffffffffffffffffffffffffff168152602001908152602001600020600082825461053291906116ed565b9250508190555050808061054590611721565b9150506103fd565b50505050505050565b60005b868690508110156106f3576000805b868690508110156105f25788888481811061058657610585611666565b5b905060200281019061059891906117ba565b828181106105a9576105a8611666565b5b905060200201358787838181106105c3576105c2611666565b5b905060200201356105d49190611769565b826105df91906116ed565b9150806105eb90611721565b9050610568565b5060005b888890508110156106e057828b8b8381811061061557610614611666565b5b90506020020135036106cf578160036000600288888681811061063b5761063a611666565b5b905060200201358154811061065357610652611666565b5b9060005260206000200160009054906101000a900473ffffffffffffffffffffffffffffffffffffffff1673ffffffffffffffffffffffffffffffffffffffff1673ffffffffffffffffffffffffffffffffffffffff16815260200190815260200160002060008282546106c791906116ed565b925050819055505b806106d990611721565b90506105f6565b5050806106ec90611721565b9050610559565b505050505050505050565b60005b8686905081101561089857600087878381811061072157610720611666565b5b90506060020160006003811061073a57610739611666565b5b60200201359050600088888481811061075657610755611666565b5b90506060020160016003811061076f5761076e611666565b5b60200201359050600089898581811061078b5761078a611666565b5b9050606002016002600381106107a4576107a3611666565b5b602002013590506000818989868181106107c1576107c0611666565b5b905060200201356107d29190611769565b9050806003600060028a8a888181106107ee576107ed611666565b5b905060200201358154811061080657610805611666565b5b9060005260206000200160009054906101000a900473ffffffffffffffffffffffffffffffffffffffff1673ffffffffffffffffffffffffffffffffffffffff1673ffffffffffffffffffffffffffffffffffffffff168152602001908152602001600020600082825461087a91906116ed565b9250508190555050505050808061089090611721565b915050610701565b50505050505050565b6000888860008181106108b7576108b6611666565b5b90506020028101906108c9919061181d565b9050905060008167ffffffffffffffff8111156108e9576108e8610d6a565b5b6040519080825280602002602001820160405280156109175781602001602082028036833780820191505090505b50905060005b828110156109e5576000805b6001548110156109b2578c8c8281811061094657610945611666565b5b9050602002810190610958919061181d565b8481811061096957610968611666565b5b9050602002013589898381811061098357610982611666565b5b90506020020135610994919061188a565b8261099f9190611902565b9150806109ab90611721565b9050610929565b50808383815181106109c7576109c6611666565b5b60200260200101818152505050806109de90611721565b905061091d565b5060005b600054811015610b4f576000805b84811015610a7f578a8a82818110610a1257610a11611666565b5b9050602002810190610a24919061181d565b84818110610a3557610a34611666565b5b90506020020135848281518110610a4f57610a4e611666565b5b6020026020010151610a61919061188a565b82610a6c9190611902565b915080610a7890611721565b90506109f7565b5060008290506000821315610b3c57816003600060028a8a86818110610aa857610aa7611666565b5b9050602002013581548110610ac057610abf611666565b5b9060005260206000200160009054906101000a900473ffffffffffffffffffffffffffffffffffffffff1673ffffffffffffffffffffffffffffffffffffffff1673ffffffffffffffffffffffffffffffffffffffff1681526020019081526020016000206000828254610b3491906116ed565b925050819055505b505080610b4890611721565b90506109e9565b5050505050505050505050565b60028181548110610b6c57600080fd5b906000526020600020016000915054906101000a900473ffffffffffffffffffffffffffffffffffffffff1681565b60005b600054811015610cef576000805b600154811015610c2d57868682818110610bc957610bc8611666565b5b90506020020135888281518110610be357610be2611666565b5b60200260200101518481518110610bfd57610bfc611666565b5b6020026020010151610c0f9190611769565b82610c1a91906116ed565b915080610c2690611721565b9050610bac565b5080600360006002878787818110610c4857610c47611666565b5b9050602002013581548110610c6057610c5f611666565b5b9060005260206000200160009054906101000a900473ffffffffffffffffffffffffffffffffffffffff1673ffffffffffffffffffffffffffffffffffffffff1673ffffffffffffffffffffffffffffffffffffffff1681526020019081526020016000206000828254610cd491906116ed565b92505081905550508080610ce790611721565b915050610b9e565b505050505050565b6000600360008373ffffffffffffffffffffffffffffffffffffffff1673ffffffffffffffffffffffffffffffffffffffff168152602001908152602001600020549050919050565b6000604051905090565b600080fd5b600080fd5b600080fd5b6000601f19601f8301169050919050565b7f4e487b7100000000000000000000000000000000000000000000000000000000600052604160045260246000fd5b610da282610d59565b810181811067ffffffffffffffff82111715610dc157610dc0610d6a565b5b80604052505050565b6000610dd4610d40565b9050610de08282610d99565b919050565b600067ffffffffffffffff821115610e0057610dff610d6a565b5b602082029050602081019050919050565b600080fd5b600067ffffffffffffffff821115610e3157610e30610d6a565b5b602082029050602081019050919050565b6000819050919050565b610e5581610e42565b8114610e6057600080fd5b50565b600081359050610e7281610e4c565b92915050565b6000610e8b610e8684610e16565b610dca565b90508083825260208201905060208402830185811115610eae57610ead610e11565b5b835b81811015610ed75780610ec38882610e63565b845260208401935050602081019050610eb0565b5050509392505050565b600082601f830112610ef657610ef5610d54565b5b8135610f06848260208601610e78565b91505092915050565b6000610f22610f1d84610de5565b610dca565b90508083825260208201905060208402830185811115610f4557610f44610e11565b5b835b81811015610f8c57803567ffffffffffffffff811115610f6a57610f69610d54565b5b808601610f778982610ee1565b85526020850194505050602081019050610f47565b5050509392505050565b600082601f830112610fab57610faa610d54565b5b8135610fbb848260208601610f0f565b91505092915050565b600080fd5b60008083601f840112610fdf57610fde610d54565b5b8235905067ffffffffffffffff811115610ffc57610ffb610fc4565b5b60208301915083602082028301111561101857611017610e11565b5b9250929050565b6000806000806060858703121561103957611038610d4a565b5b600085013567ffffffffffffffff81111561105757611056610d4f565b5b61106387828801610f96565b945050602085013567ffffffffffffffff81111561108457611083610d4f565b5b61109087828801610fc9565b9350935050604085013567ffffffffffffffff8111156110b3576110b2610d4f565b5b6110bf87828801610ee1565b91505092959194509250565b60008083601f8401126110e1576110e0610d54565b5b8235905067ffffffffffffffff8111156110fe576110fd610fc4565b5b60208301915083602082028301111561111a57611119610e11565b5b9250929050565b6000806000806000806000806080898b03121561114157611140610d4a565b5b600089013567ffffffffffffffff81111561115f5761115e610d4f565b5b61116b8b828c01610fc9565b9850985050602089013567ffffffffffffffff81111561118e5761118d610d4f565b5b61119a8b828c016110cb565b9650965050604089013567ffffffffffffffff8111156111bd576111bc610d4f565b5b6111c98b828c01610fc9565b9450945050606089013567ffffffffffffffff8111156111ec576111eb610d4f565b5b6111f88b828c01610fc9565b92509250509295985092959890939650565b60008083601f8401126112205761121f610d54565b5b8235905067ffffffffffffffff81111561123d5761123c610fc4565b5b60208301915083606082028301111561125957611258610e11565b5b9250929050565b6000806000806000806060878903121561127d5761127c610d4a565b5b600087013567ffffffffffffffff81111561129b5761129a610d4f565b5b6112a789828a0161120a565b9650965050602087013567ffffffffffffffff8111156112ca576112c9610d4f565b5b6112d689828a01610fc9565b9450945050604087013567ffffffffffffffff8111156112f9576112f8610d4f565b5b61130589828a01610fc9565b92509250509295509295509295565b60008083601f84011261132a57611329610d54565b5b8235905067ffffffffffffffff81111561134757611346610fc4565b5b60208301915083602082028301111561136357611362610e11565b5b9250929050565b60008083601f8401126113805761137f610d54565b5b8235905067ffffffffffffffff81111561139d5761139c610fc4565b5b6020830191508360208202830111156113b9576113b8610e11565b5b9250929050565b6000806000806000806000806080898b0312156113e0576113df610d4a565b5b600089013567ffffffffffffffff8111156113fe576113fd610d4f565b5b61140a8b828c01611314565b9850985050602089013567ffffffffffffffff81111561142d5761142c610d4f565b5b6114398b828c01611314565b9650965050604089013567ffffffffffffffff81111561145c5761145b610d4f565b5b6114688b828c0161136a565b9450945050606089013567ffffffffffffffff81111561148b5761148a610d4f565b5b6114978b828c01610fc9565b92509250509295985092959890939650565b6000602082840312156114bf576114be610d4a565b5b60006114cd84828501610e63565b91505092915050565b600073ffffffffffffffffffffffffffffffffffffffff82169050919050565b6000611501826114d6565b9050919050565b611511816114f6565b82525050565b600060208201905061152c6000830184611508565b92915050565b60008060008060006060868803121561154e5761154d610d4a565b5b600086013567ffffffffffffffff81111561156c5761156b610d4f565b5b61157888828901610f96565b955050602086013567ffffffffffffffff81111561159957611598610d4f565b5b6115a588828901610fc9565b9450945050604086013567ffffffffffffffff8111156115c8576115c7610d4f565b5b6115d488828901610fc9565b92509250509295509295909350565b6115ec816114f6565b81146115f757600080fd5b50565b600081359050611609816115e3565b92915050565b60006020828403121561162557611624610d4a565b5b6000611633848285016115fa565b91505092915050565b61164581610e42565b82525050565b6000602082019050611660600083018461163c565b92915050565b7f4e487b7100000000000000000000000000000000000000000000000000000000600052603260045260246000fd5b7f4e487b7100000000000000000000000000000000000000000000000000000000600052601160045260246000fd5b60006116cf82610e42565b9150600082036116e2576116e1611695565b5b600182039050919050565b60006116f882610e42565b915061170383610e42565b925082820190508082111561171b5761171a611695565b5b92915050565b600061172c82610e42565b91507fffffffffffffffffffffffffffffffffffffffffffffffffffffffffffffffff820361175e5761175d611695565b5b600182019050919050565b600061177482610e42565b915061177f83610e42565b925082820261178d81610e42565b915082820484148315176117a4576117a3611695565b5b5092915050565b600080fd5b600080fd5b600080fd5b600080833560016020038436030381126117d7576117d66117ab565b5b80840192508235915067ffffffffffffffff8211156117f9576117f86117b0565b5b602083019250602082023603831315611815576118146117b5565b5b509250929050565b6000808335600160200384360303811261183a576118396117ab565b5b80840192508235915067ffffffffffffffff82111561185c5761185b6117b0565b5b602083019250602082023603831315611878576118776117b5565b5b509250929050565b6000819050919050565b600061189582611880565b91506118a083611880565b92508282026118ae81611880565b91507f800000000000000000000000000000000000000000000000000000000000000084146000841216156118e6576118e5611695565b5b82820584148315176118fb576118fa611695565b5b5092915050565b600061190d82611880565b915061191883611880565b9250828201905082811215600083121683821260008412151617156119405761193f611695565b5b9291505056fea2646970667358221220e27118dd9dbb53090bf6723b955db9e0514a3bc3141e95e9d219ac9c95341bbc64736f6c63430008120033",
  "linkReferences": {},
  "deployedLinkReferences": {}
}