{
  "_format": "hh-sol-artifact-1",
  "contractName": "PayoutContract",
  "sourceName": "contracts/Payout.sol",
  "abi": [
    {
      "inputs": [
        {
          "internalType": "address[]",
          "name": "_investors",
          "type": "address[]"
        },
        {
          "internalType": "uint256",
          "name": "_n_assets",
          "type": "uint256"
        }
      ],
      "stateMutability": "nonpayable",
      "type": "constructor"
    },
    {
      "inputs": [],
      "name": "addAsset",
      "outputs": [],
      "stateMutability": "nonpayable",
      "type": "function"
    },
    {
      "inputs": [
        {
          "internalType": "address",
          "name": "_investorAddress",
          "type": "address"
        }
      ],
      "name": "addInvestor",
      "outputs": [],
      "stateMutability": "nonpayable",
      "type": "function"
    },
    {
      "inputs": [],
      "name": "conductPayment",
      "outputs": [],
      "stateMutability": "payable",
      "type": "function"
    },
    {
      "inputs": [
        {
          "internalType": "address",
          "name": "_owner",
          "type": "address"
        }
      ],
      "name": "getBalance",
      "outputs": [
        {
          "internalType": "uint256",
          "name": "",
          "type": "uint256"
        }
      ],
      "stateMutability": "view",
      "type": "function"
    },
    {
      "inputs": [
        {
          "internalType": "uint256",
          "name": "",
          "type": "uint256"
        }
      ],
      "name": "investors",
      "outputs": [
        {
          "internalType": "address",
          "name": "",
          "type": "address"
        }
      ],
      "stateMutability": "view",
      "type": "function"
    },
    {
      "inputs": [
        {
          "internalType": "uint256[][]",
          "name": "L",
          "type": "uint256[][]"
        },
        {
          "internalType": "uint256[][]",
          "name": "R",
          "type": "uint256[][]"
        },
        {
          "internalType": "uint256[]",
          "name": "_assetsCost",
          "type": "uint256[]"
        }
      ],
      "name": "payoutLowRank",
      "outputs": [],
      "stateMutability": "payable",
      "type": "function"
    },
    {
      "inputs": [
        {
          "internalType": "uint256[][]",
          "name": "_payoutMatrix",
          "type": "uint256[][]"
        },
        {
          "internalType": "uint256[]",
          "name": "_assetsCost",
          "type": "uint256[]"
        }
      ],
      "name": "payoutNaive",
      "outputs": [],
      "stateMutability": "payable",
      "type": "function"
    },
    {
      "inputs": [
        {
          "internalType": "uint256[]",
          "name": "column_id",
          "type": "uint256[]"
        },
        {
          "internalType": "uint256[][]",
          "name": "columns",
          "type": "uint256[][]"
        },
        {
          "internalType": "uint256[]",
          "name": "_assetsCost",
          "type": "uint256[]"
        }
      ],
      "name": "payoutRepeatedColumns",
      "outputs": [],
      "stateMutability": "payable",
      "type": "function"
    },
    {
      "inputs": [
        {
          "internalType": "uint256[3][]",
          "name": "_payoutTriples",
          "type": "uint256[3][]"
        },
        {
          "internalType": "uint256[]",
          "name": "_assetsCost",
          "type": "uint256[]"
        }
      ],
      "name": "payoutSparse",
      "outputs": [],
      "stateMutability": "payable",
      "type": "function"
    }
  ],
  "bytecode": "0x60806040526000805560006001553480156200001a57600080fd5b506040516200194e3803806200194e833981810160405281019062000040919062000347565b81516000819055508060018190555081600290805190602001906200006792919062000070565b505050620003ad565b828054828255906000526020600020908101928215620000ec579160200282015b82811115620000eb5782518260006101000a81548173ffffffffffffffffffffffffffffffffffffffff021916908373ffffffffffffffffffffffffffffffffffffffff1602179055509160200191906001019062000091565b5b509050620000fb9190620000ff565b5090565b5b808211156200011a57600081600090555060010162000100565b5090565b6000604051905090565b600080fd5b600080fd5b600080fd5b6000601f19601f8301169050919050565b7f4e487b7100000000000000000000000000000000000000000000000000000000600052604160045260246000fd5b620001828262000137565b810181811067ffffffffffffffff82111715620001a457620001a362000148565b5b80604052505050565b6000620001b96200011e565b9050620001c7828262000177565b919050565b600067ffffffffffffffff821115620001ea57620001e962000148565b5b602082029050602081019050919050565b600080fd5b600073ffffffffffffffffffffffffffffffffffffffff82169050919050565b60006200022d8262000200565b9050919050565b6200023f8162000220565b81146200024b57600080fd5b50565b6000815190506200025f8162000234565b92915050565b60006200027c6200027684620001cc565b620001ad565b90508083825260208201905060208402830185811115620002a257620002a1620001fb565b5b835b81811015620002cf5780620002ba88826200024e565b845260208401935050602081019050620002a4565b5050509392505050565b600082601f830112620002f157620002f062000132565b5b81516200030384826020860162000265565b91505092915050565b6000819050919050565b62000321816200030c565b81146200032d57600080fd5b50565b600081519050620003418162000316565b92915050565b6000806040838503121562000361576200036062000128565b5b600083015167ffffffffffffffff8111156200038257620003816200012d565b5b6200039085828601620002d9565b9250506020620003a38582860162000330565b9150509250929050565b61159180620003bd6000396000f3fe6080604052600436106100865760003560e01c806391f601191161005957806391f6011914610117578063d2eb502314610121578063e42c3fab1461013d578063e641bde114610159578063f8b2cb4f1461018257610086565b80630d5528c11461008b5780632f4fc808146100a75780633feb5f2b146100c35780636452037c14610100575b600080fd5b6100a560048036038101906100a09190610f65565b6101bf565b005b6100c160048036038101906100bc91906110be565b61038a565b005b3480156100cf57600080fd5b506100ea60048036038101906100e59190611165565b610508565b6040516100f791906111d3565b60405180910390f35b34801561010c57600080fd5b50610115610547565b005b61011f610561565b005b61013b600480360381019061013691906111ee565b610709565b005b61015760048036038101906101529190611295565b610982565b005b34801561016557600080fd5b50610180600480360381019061017b9190611339565b610ac3565b005b34801561018e57600080fd5b506101a960048036038101906101a49190611339565b610b40565b6040516101b69190611375565b60405180910390f35b6101ff6040518060400160405280600781526020017f6c656e6774683d000000000000000000000000000000000000000000000000008152508351610b89565b60005b82518110156103855760008382815181106102205761021f611390565b5b602002602001015160006003811061023b5761023a611390565b5b60200201519050600084838151811061025757610256611390565b5b602002602001015160016003811061027257610271611390565b5b60200201519050600085848151811061028e5761028d611390565b5b60200260200101516002600381106102a9576102a8611390565b5b602002015190506000818685815181106102c6576102c5611390565b5b60200260200101516102d891906113ee565b90508060036000600286815481106102f3576102f2611390565b5b9060005260206000200160009054906101000a900473ffffffffffffffffffffffffffffffffffffffff1673ffffffffffffffffffffffffffffffffffffffff1673ffffffffffffffffffffffffffffffffffffffff16815260200190815260200160002060008282546103679190611430565b9250508190555050505050808061037d90611464565b915050610202565b505050565b60005b8251811015610502576000805b835181101561041b578483815181106103b6576103b5611390565b5b602002602001015181815181106103d0576103cf611390565b5b60200260200101518482815181106103eb576103ea611390565b5b60200260200101516103fd91906113ee565b826104089190611430565b91508061041490611464565b905061039a565b5060005b84518110156104ef578286828151811061043c5761043b611390565b5b6020026020010151036104de5781600360006002848154811061046257610461611390565b5b9060005260206000200160009054906101000a900473ffffffffffffffffffffffffffffffffffffffff1673ffffffffffffffffffffffffffffffffffffffff1673ffffffffffffffffffffffffffffffffffffffff16815260200190815260200160002060008282546104d69190611430565b925050819055505b806104e890611464565b905061041f565b5050806104fb90611464565b905061038d565b50505050565b6002818154811061051857600080fd5b906000526020600020016000915054906101000a900473ffffffffffffffffffffffffffffffffffffffff1681565b6001600081548092919061055a90611464565b9190505550565b60005b600054811015610706576002818154811061058257610581611390565b5b9060005260206000200160009054906101000a900473ffffffffffffffffffffffffffffffffffffffff1673ffffffffffffffffffffffffffffffffffffffff166108fc60036000600285815481106105de576105dd611390565b5b9060005260206000200160009054906101000a900473ffffffffffffffffffffffffffffffffffffffff1673ffffffffffffffffffffffffffffffffffffffff1673ffffffffffffffffffffffffffffffffffffffff168152602001908152602001600020549081150290604051600060405180830381858888f1935050505015801561066f573d6000803e3d6000fd5b506000600360006002848154811061068a57610689611390565b5b9060005260206000200160009054906101000a900473ffffffffffffffffffffffffffffffffffffffff1673ffffffffffffffffffffffffffffffffffffffff1673ffffffffffffffffffffffffffffffffffffffff1681526020019081526020016000208190555080806106fe90611464565b915050610564565b50565b60008360008151811061071f5761071e611390565b5b602002602001015151905060008167ffffffffffffffff81111561074657610745610c78565b5b6040519080825280602002602001820160405280156107745781602001602082028036833780820191505090505b50905060005b8281101561083b576000805b600154811015610808578781815181106107a3576107a2611390565b5b602002602001015183815181106107bd576107bc611390565b5b60200260200101518682815181106107d8576107d7611390565b5b60200260200101516107ea91906113ee565b826107f59190611430565b91508061080190611464565b9050610786565b508083838151811061081d5761081c611390565b5b602002602001018181525050508061083490611464565b905061077a565b5060005b60005481101561097a576000805b848110156108cd5786818151811061086857610867611390565b5b6020026020010151838151811061088257610881611390565b5b602002602001015184828151811061089d5761089c611390565b5b60200260200101516108af91906113ee565b826108ba9190611430565b9150806108c690611464565b905061084d565b5060008290508160036000600284815481106108ec576108eb611390565b5b9060005260206000200160009054906101000a900473ffffffffffffffffffffffffffffffffffffffff1673ffffffffffffffffffffffffffffffffffffffff1673ffffffffffffffffffffffffffffffffffffffff16815260200190815260200160002060008282546109609190611430565b9250508190555050508061097390611464565b905061083f565b505050505050565b60005b600054811015610abe576000805b600154811015610a15578381815181106109b0576109af611390565b5b60200260200101518582815181106109cb576109ca611390565b5b602002602001015184815181106109e5576109e4611390565b5b60200260200101516109f791906113ee565b82610a029190611430565b915080610a0e90611464565b9050610993565b50806003600060028581548110610a2f57610a2e611390565b5b9060005260206000200160009054906101000a900473ffffffffffffffffffffffffffffffffffffffff1673ffffffffffffffffffffffffffffffffffffffff1673ffffffffffffffffffffffffffffffffffffffff1681526020019081526020016000206000828254610aa39190611430565b92505081905550508080610ab690611464565b915050610985565b505050565b6002819080600181540180825580915050600190039060005260206000200160009091909190916101000a81548173ffffffffffffffffffffffffffffffffffffffff021916908373ffffffffffffffffffffffffffffffffffffffff160217905550600080815480929190610b3890611464565b919050555050565b6000600360008373ffffffffffffffffffffffffffffffffffffffff1673ffffffffffffffffffffffffffffffffffffffff168152602001908152602001600020549050919050565b610c218282604051602401610b9f92919061152b565b6040516020818303038152906040527fb60e72cc000000000000000000000000000000000000000000000000000000007bffffffffffffffffffffffffffffffffffffffffffffffffffffffff19166020820180517bffffffffffffffffffffffffffffffffffffffffffffffffffffffff8381831617835250505050610c25565b5050565b60008151905060006a636f6e736f6c652e6c6f679050602083016000808483855afa5050505050565b6000604051905090565b600080fd5b600080fd5b600080fd5b6000601f19601f8301169050919050565b7f4e487b7100000000000000000000000000000000000000000000000000000000600052604160045260246000fd5b610cb082610c67565b810181811067ffffffffffffffff82111715610ccf57610cce610c78565b5b80604052505050565b6000610ce2610c4e565b9050610cee8282610ca7565b919050565b600067ffffffffffffffff821115610d0e57610d0d610c78565b5b602082029050602081019050919050565b600080fd5b600067ffffffffffffffff821115610d3f57610d3e610c78565b5b602082029050919050565b6000819050919050565b610d5d81610d4a565b8114610d6857600080fd5b50565b600081359050610d7a81610d54565b92915050565b6000610d93610d8e84610d24565b610cd8565b90508060208402830185811115610dad57610dac610d1f565b5b835b81811015610dd65780610dc28882610d6b565b845260208401935050602081019050610daf565b5050509392505050565b600082601f830112610df557610df4610c62565b5b6003610e02848285610d80565b91505092915050565b6000610e1e610e1984610cf3565b610cd8565b90508083825260208201905060608402830185811115610e4157610e40610d1f565b5b835b81811015610e6a5780610e568882610de0565b845260208401935050606081019050610e43565b5050509392505050565b600082601f830112610e8957610e88610c62565b5b8135610e99848260208601610e0b565b91505092915050565b600067ffffffffffffffff821115610ebd57610ebc610c78565b5b602082029050602081019050919050565b6000610ee1610edc84610ea2565b610cd8565b90508083825260208201905060208402830185811115610f0457610f03610d1f565b5b835b81811015610f2d5780610f198882610d6b565b845260208401935050602081019050610f06565b5050509392505050565b600082601f830112610f4c57610f4b610c62565b5b8135610f5c848260208601610ece565b91505092915050565b60008060408385031215610f7c57610f7b610c58565b5b600083013567ffffffffffffffff811115610f9a57610f99610c5d565b5b610fa685828601610e74565b925050602083013567ffffffffffffffff811115610fc757610fc6610c5d565b5b610fd385828601610f37565b9150509250929050565b600067ffffffffffffffff821115610ff857610ff7610c78565b5b602082029050602081019050919050565b600061101c61101784610fdd565b610cd8565b9050808382526020820190506020840283018581111561103f5761103e610d1f565b5b835b8181101561108657803567ffffffffffffffff81111561106457611063610c62565b5b8086016110718982610f37565b85526020850194505050602081019050611041565b5050509392505050565b600082601f8301126110a5576110a4610c62565b5b81356110b5848260208601611009565b91505092915050565b6000806000606084860312156110d7576110d6610c58565b5b600084013567ffffffffffffffff8111156110f5576110f4610c5d565b5b61110186828701610f37565b935050602084013567ffffffffffffffff81111561112257611121610c5d565b5b61112e86828701611090565b925050604084013567ffffffffffffffff81111561114f5761114e610c5d565b5b61115b86828701610f37565b9150509250925092565b60006020828403121561117b5761117a610c58565b5b600061118984828501610d6b565b91505092915050565b600073ffffffffffffffffffffffffffffffffffffffff82169050919050565b60006111bd82611192565b9050919050565b6111cd816111b2565b82525050565b60006020820190506111e860008301846111c4565b92915050565b60008060006060848603121561120757611206610c58565b5b600084013567ffffffffffffffff81111561122557611224610c5d565b5b61123186828701611090565b935050602084013567ffffffffffffffff81111561125257611251610c5d565b5b61125e86828701611090565b925050604084013567ffffffffffffffff81111561127f5761127e610c5d565b5b61128b86828701610f37565b9150509250925092565b600080604083850312156112ac576112ab610c58565b5b600083013567ffffffffffffffff8111156112ca576112c9610c5d565b5b6112d685828601611090565b925050602083013567ffffffffffffffff8111156112f7576112f6610c5d565b5b61130385828601610f37565b9150509250929050565b611316816111b2565b811461132157600080fd5b50565b6000813590506113338161130d565b92915050565b60006020828403121561134f5761134e610c58565b5b600061135d84828501611324565b91505092915050565b61136f81610d4a565b82525050565b600060208201905061138a6000830184611366565b92915050565b7f4e487b7100000000000000000000000000000000000000000000000000000000600052603260045260246000fd5b7f4e487b7100000000000000000000000000000000000000000000000000000000600052601160045260246000fd5b60006113f982610d4a565b915061140483610d4a565b925082820261141281610d4a565b91508282048414831517611429576114286113bf565b5b5092915050565b600061143b82610d4a565b915061144683610d4a565b925082820190508082111561145e5761145d6113bf565b5b92915050565b600061146f82610d4a565b91507fffffffffffffffffffffffffffffffffffffffffffffffffffffffffffffffff82036114a1576114a06113bf565b5b600182019050919050565b600081519050919050565b600082825260208201905092915050565b60005b838110156114e65780820151818401526020810190506114cb565b60008484015250505050565b60006114fd826114ac565b61150781856114b7565b93506115178185602086016114c8565b61152081610c67565b840191505092915050565b6000604082019050818103600083015261154581856114f2565b90506115546020830184611366565b939250505056fea2646970667358221220063fe4b1ddcb3d151f3d4ea72ecc370ee40e8c55f462c723ddb91b079c2e18ef64736f6c63430008120033",
  "linkReferences": {},
  "deployedLinkReferences": {}
}