{
  "_format": "hh-sol-artifact-1",
  "contractName": "PayoutContract",
  "sourceName": "contracts/Payout.sol",
  "abi": [
    {
      "inputs": [
        {
          "internalType": "address[]",
          "name": "_securities",
          "type": "address[]"
        },
        {
          "internalType": "uint256",
          "name": "_n_assets",
          "type": "uint256"
        }
      ],
      "stateMutability": "nonpayable",
      "type": "constructor"
    },
    {
      "inputs": [],
      "name": "addAsset",
      "outputs": [],
      "stateMutability": "nonpayable",
      "type": "function"
    },
    {
      "inputs": [
        {
          "internalType": "address",
          "name": "_investorAddress",
          "type": "address"
        }
      ],
      "name": "addInvestor",
      "outputs": [],
      "stateMutability": "nonpayable",
      "type": "function"
    },
    {
      "inputs": [],
      "name": "conductPayment",
      "outputs": [],
      "stateMutability": "payable",
      "type": "function"
    },
    {
      "inputs": [
        {
          "internalType": "address",
          "name": "_owner",
          "type": "address"
        }
      ],
      "name": "getBalance",
      "outputs": [
        {
          "internalType": "uint256",
          "name": "",
          "type": "uint256"
        }
      ],
      "stateMutability": "view",
      "type": "function"
    },
    {
      "inputs": [
        {
          "internalType": "uint256",
          "name": "",
          "type": "uint256"
        }
      ],
      "name": "investors",
      "outputs": [
        {
          "internalType": "address",
          "name": "",
          "type": "address"
        }
      ],
      "stateMutability": "view",
      "type": "function"
    },
    {
      "inputs": [
        {
          "internalType": "int256[][]",
          "name": "L",
          "type": "int256[][]"
        },
        {
          "internalType": "int256[][]",
          "name": "R",
          "type": "int256[][]"
        },
        {
          "internalType": "int256[]",
          "name": "_assetsCost",
          "type": "int256[]"
        }
      ],
      "name": "payoutLowRank",
      "outputs": [],
      "stateMutability": "payable",
      "type": "function"
    },
    {
      "inputs": [
        {
          "internalType": "uint256[][]",
          "name": "_payoutMatrix",
          "type": "uint256[][]"
        },
        {
          "internalType": "uint256[]",
          "name": "_assetsCost",
          "type": "uint256[]"
        }
      ],
      "name": "payoutNaive",
      "outputs": [],
      "stateMutability": "payable",
      "type": "function"
    },
    {
      "inputs": [
        {
          "internalType": "uint256[]",
          "name": "_column_id",
          "type": "uint256[]"
        },
        {
          "internalType": "uint256[][]",
          "name": "_columns",
          "type": "uint256[][]"
        },
        {
          "internalType": "uint256[]",
          "name": "_assetsCost",
          "type": "uint256[]"
        }
      ],
      "name": "payoutRepeatedColumns",
      "outputs": [],
      "stateMutability": "payable",
      "type": "function"
    },
    {
      "inputs": [
        {
          "internalType": "uint256[3][]",
          "name": "_payoutTriples",
          "type": "uint256[3][]"
        },
        {
          "internalType": "uint256[]",
          "name": "_assetsCost",
          "type": "uint256[]"
        }
      ],
      "name": "payoutSparse",
      "outputs": [],
      "stateMutability": "payable",
      "type": "function"
    }
  ],
  "bytecode": "0x60806040526000805560006001553480156200001a57600080fd5b506040516200199838038062001998833981810160405281019062000040919062000347565b81516000819055508060018190555081600290805190602001906200006792919062000070565b505050620003ad565b828054828255906000526020600020908101928215620000ec579160200282015b82811115620000eb5782518260006101000a81548173ffffffffffffffffffffffffffffffffffffffff021916908373ffffffffffffffffffffffffffffffffffffffff1602179055509160200191906001019062000091565b5b509050620000fb9190620000ff565b5090565b5b808211156200011a57600081600090555060010162000100565b5090565b6000604051905090565b600080fd5b600080fd5b600080fd5b6000601f19601f8301169050919050565b7f4e487b7100000000000000000000000000000000000000000000000000000000600052604160045260246000fd5b620001828262000137565b810181811067ffffffffffffffff82111715620001a457620001a362000148565b5b80604052505050565b6000620001b96200011e565b9050620001c7828262000177565b919050565b600067ffffffffffffffff821115620001ea57620001e962000148565b5b602082029050602081019050919050565b600080fd5b600073ffffffffffffffffffffffffffffffffffffffff82169050919050565b60006200022d8262000200565b9050919050565b6200023f8162000220565b81146200024b57600080fd5b50565b6000815190506200025f8162000234565b92915050565b60006200027c6200027684620001cc565b620001ad565b90508083825260208201905060208402830185811115620002a257620002a1620001fb565b5b835b81811015620002cf5780620002ba88826200024e565b845260208401935050602081019050620002a4565b5050509392505050565b600082601f830112620002f157620002f062000132565b5b81516200030384826020860162000265565b91505092915050565b6000819050919050565b62000321816200030c565b81146200032d57600080fd5b50565b600081519050620003418162000316565b92915050565b6000806040838503121562000361576200036062000128565b5b600083015167ffffffffffffffff8111156200038257620003816200012d565b5b6200039085828601620002d9565b9250506020620003a38582860162000330565b9150509250929050565b6115db80620003bd6000396000f3fe6080604052600436106100865760003560e01c80636996c99d116100595780636996c99d1461011757806391f6011914610133578063e42c3fab1461013d578063e641bde114610159578063f8b2cb4f1461018257610086565b80630d5528c11461008b5780632f4fc808146100a75780633feb5f2b146100c35780636452037c14610100575b600080fd5b6100a560048036038101906100a09190610d51565b6101bf565b005b6100c160048036038101906100bc9190610e28565b610389565b005b3480156100cf57600080fd5b506100ea60048036038101906100e59190610f12565b610516565b6040516100f79190610f80565b60405180910390f35b34801561010c57600080fd5b50610115610555565b005b610131600480360381019061012c9190611047565b61056f565b005b61013b61080f565b005b610157600480360381019061015291906110fb565b6109b7565b005b34801561016557600080fd5b50610180600480360381019061017b91906111a8565b610b01565b005b34801561018e57600080fd5b506101a960048036038101906101a491906111a8565b610b7e565b6040516101b691906111e4565b60405180910390f35b6102016040518060400160405280600781526020017f6c656e6774683d0000000000000000000000000000000000000000000000000081525085859050610bc7565b60005b84849050811015610382576000858583818110610224576102236111ff565b5b90506060020160006003811061023d5761023c6111ff565b5b602002013590506000868684818110610259576102586111ff565b5b905060600201600160038110610272576102716111ff565b5b60200201359050600087878581811061028e5761028d6111ff565b5b9050606002016002600381106102a7576102a66111ff565b5b602002013590506000818787868181106102c4576102c36111ff565b5b905060200201356102d5919061125d565b90508060036000600286815481106102f0576102ef6111ff565b5b9060005260206000200160009054906101000a900473ffffffffffffffffffffffffffffffffffffffff1673ffffffffffffffffffffffffffffffffffffffff1673ffffffffffffffffffffffffffffffffffffffff1681526020019081526020016000206000828254610364919061129f565b9250508190555050505050808061037a906112d3565b915050610204565b5050505050565b60005b8484905081101561050d576000805b84849050811015610425578686848181106103b9576103b86111ff565b5b90506020028101906103cb919061132a565b828181106103dc576103db6111ff565b5b905060200201358585838181106103f6576103f56111ff565b5b90506020020135610407919061125d565b82610412919061129f565b91508061041e906112d3565b905061039b565b5060005b868690508110156104fa5782898983818110610448576104476111ff565b5b90506020020135036104e95781600360006002848154811061046d5761046c6111ff565b5b9060005260206000200160009054906101000a900473ffffffffffffffffffffffffffffffffffffffff1673ffffffffffffffffffffffffffffffffffffffff1673ffffffffffffffffffffffffffffffffffffffff16815260200190815260200160002060008282546104e1919061129f565b925050819055505b806104f3906112d3565b9050610429565b505080610506906112d3565b905061038c565b50505050505050565b6002818154811061052657600080fd5b906000526020600020016000915054906101000a900473ffffffffffffffffffffffffffffffffffffffff1681565b60016000815480929190610568906112d3565b9190505550565b600086866000818110610585576105846111ff565b5b9050602002810190610597919061138d565b9050905060008167ffffffffffffffff8111156105b7576105b66113f0565b5b6040519080825280602002602001820160405280156105e55781602001602082028036833780820191505090505b50905060005b828110156106b3576000805b600154811015610680578a8a82818110610614576106136111ff565b5b9050602002810190610626919061138d565b84818110610637576106366111ff565b5b90506020020135878783818110610651576106506111ff565b5b905060200201356106629190611429565b8261066d91906114a1565b915080610679906112d3565b90506105f7565b5080838381518110610695576106946111ff565b5b60200260200101818152505050806106ac906112d3565b90506105eb565b5060005b600054811015610804576000805b8481101561074d578888828181106106e0576106df6111ff565b5b90506020028101906106f2919061138d565b84818110610703576107026111ff565b5b9050602002013584828151811061071d5761071c6111ff565b5b602002602001015161072f9190611429565b8261073a91906114a1565b915080610746906112d3565b90506106c5565b50600082905060008213156107f157816003600060028481548110610775576107746111ff565b5b9060005260206000200160009054906101000a900473ffffffffffffffffffffffffffffffffffffffff1673ffffffffffffffffffffffffffffffffffffffff1673ffffffffffffffffffffffffffffffffffffffff16815260200190815260200160002060008282546107e9919061129f565b925050819055505b5050806107fd906112d3565b90506106b7565b505050505050505050565b60005b6000548110156109b457600281815481106108305761082f6111ff565b5b9060005260206000200160009054906101000a900473ffffffffffffffffffffffffffffffffffffffff1673ffffffffffffffffffffffffffffffffffffffff166108fc600360006002858154811061088c5761088b6111ff565b5b9060005260206000200160009054906101000a900473ffffffffffffffffffffffffffffffffffffffff1673ffffffffffffffffffffffffffffffffffffffff1673ffffffffffffffffffffffffffffffffffffffff168152602001908152602001600020549081150290604051600060405180830381858888f1935050505015801561091d573d6000803e3d6000fd5b5060006003600060028481548110610938576109376111ff565b5b9060005260206000200160009054906101000a900473ffffffffffffffffffffffffffffffffffffffff1673ffffffffffffffffffffffffffffffffffffffff1673ffffffffffffffffffffffffffffffffffffffff1681526020019081526020016000208190555080806109ac906112d3565b915050610812565b50565b60005b600054811015610afa576000805b600154811015610a51578484828181106109e5576109e46111ff565b5b905060200201358787838181106109ff576109fe6111ff565b5b9050602002810190610a11919061132a565b85818110610a2257610a216111ff565b5b90506020020135610a33919061125d565b82610a3e919061129f565b915080610a4a906112d3565b90506109c8565b50806003600060028581548110610a6b57610a6a6111ff565b5b9060005260206000200160009054906101000a900473ffffffffffffffffffffffffffffffffffffffff1673ffffffffffffffffffffffffffffffffffffffff1673ffffffffffffffffffffffffffffffffffffffff1681526020019081526020016000206000828254610adf919061129f565b92505081905550508080610af2906112d3565b9150506109ba565b5050505050565b6002819080600181540180825580915050600190039060005260206000200160009091909190916101000a81548173ffffffffffffffffffffffffffffffffffffffff021916908373ffffffffffffffffffffffffffffffffffffffff160217905550600080815480929190610b76906112d3565b919050555050565b6000600360008373ffffffffffffffffffffffffffffffffffffffff1673ffffffffffffffffffffffffffffffffffffffff168152602001908152602001600020549050919050565b610c5f8282604051602401610bdd929190611575565b6040516020818303038152906040527fb60e72cc000000000000000000000000000000000000000000000000000000007bffffffffffffffffffffffffffffffffffffffffffffffffffffffff19166020820180517bffffffffffffffffffffffffffffffffffffffffffffffffffffffff8381831617835250505050610c63565b5050565b60008151905060006a636f6e736f6c652e6c6f679050602083016000808483855afa5050505050565b600080fd5b600080fd5b600080fd5b600080fd5b600080fd5b60008083601f840112610cbb57610cba610c96565b5b8235905067ffffffffffffffff811115610cd857610cd7610c9b565b5b602083019150836060820283011115610cf457610cf3610ca0565b5b9250929050565b60008083601f840112610d1157610d10610c96565b5b8235905067ffffffffffffffff811115610d2e57610d2d610c9b565b5b602083019150836020820283011115610d4a57610d49610ca0565b5b9250929050565b60008060008060408587031215610d6b57610d6a610c8c565b5b600085013567ffffffffffffffff811115610d8957610d88610c91565b5b610d9587828801610ca5565b9450945050602085013567ffffffffffffffff811115610db857610db7610c91565b5b610dc487828801610cfb565b925092505092959194509250565b60008083601f840112610de857610de7610c96565b5b8235905067ffffffffffffffff811115610e0557610e04610c9b565b5b602083019150836020820283011115610e2157610e20610ca0565b5b9250929050565b60008060008060008060608789031215610e4557610e44610c8c565b5b600087013567ffffffffffffffff811115610e6357610e62610c91565b5b610e6f89828a01610cfb565b9650965050602087013567ffffffffffffffff811115610e9257610e91610c91565b5b610e9e89828a01610dd2565b9450945050604087013567ffffffffffffffff811115610ec157610ec0610c91565b5b610ecd89828a01610cfb565b92509250509295509295509295565b6000819050919050565b610eef81610edc565b8114610efa57600080fd5b50565b600081359050610f0c81610ee6565b92915050565b600060208284031215610f2857610f27610c8c565b5b6000610f3684828501610efd565b91505092915050565b600073ffffffffffffffffffffffffffffffffffffffff82169050919050565b6000610f6a82610f3f565b9050919050565b610f7a81610f5f565b82525050565b6000602082019050610f956000830184610f71565b92915050565b60008083601f840112610fb157610fb0610c96565b5b8235905067ffffffffffffffff811115610fce57610fcd610c9b565b5b602083019150836020820283011115610fea57610fe9610ca0565b5b9250929050565b60008083601f84011261100757611006610c96565b5b8235905067ffffffffffffffff81111561102457611023610c9b565b5b6020830191508360208202830111156110405761103f610ca0565b5b9250929050565b6000806000806000806060878903121561106457611063610c8c565b5b600087013567ffffffffffffffff81111561108257611081610c91565b5b61108e89828a01610f9b565b9650965050602087013567ffffffffffffffff8111156110b1576110b0610c91565b5b6110bd89828a01610f9b565b9450945050604087013567ffffffffffffffff8111156110e0576110df610c91565b5b6110ec89828a01610ff1565b92509250509295509295509295565b6000806000806040858703121561111557611114610c8c565b5b600085013567ffffffffffffffff81111561113357611132610c91565b5b61113f87828801610dd2565b9450945050602085013567ffffffffffffffff81111561116257611161610c91565b5b61116e87828801610cfb565b925092505092959194509250565b61118581610f5f565b811461119057600080fd5b50565b6000813590506111a28161117c565b92915050565b6000602082840312156111be576111bd610c8c565b5b60006111cc84828501611193565b91505092915050565b6111de81610edc565b82525050565b60006020820190506111f960008301846111d5565b92915050565b7f4e487b7100000000000000000000000000000000000000000000000000000000600052603260045260246000fd5b7f4e487b7100000000000000000000000000000000000000000000000000000000600052601160045260246000fd5b600061126882610edc565b915061127383610edc565b925082820261128181610edc565b915082820484148315176112985761129761122e565b5b5092915050565b60006112aa82610edc565b91506112b583610edc565b92508282019050808211156112cd576112cc61122e565b5b92915050565b60006112de82610edc565b91507fffffffffffffffffffffffffffffffffffffffffffffffffffffffffffffffff82036113105761130f61122e565b5b600182019050919050565b600080fd5b600080fd5b600080fd5b600080833560016020038436030381126113475761134661131b565b5b80840192508235915067ffffffffffffffff82111561136957611368611320565b5b60208301925060208202360383131561138557611384611325565b5b509250929050565b600080833560016020038436030381126113aa576113a961131b565b5b80840192508235915067ffffffffffffffff8211156113cc576113cb611320565b5b6020830192506020820236038313156113e8576113e7611325565b5b509250929050565b7f4e487b7100000000000000000000000000000000000000000000000000000000600052604160045260246000fd5b6000819050919050565b60006114348261141f565b915061143f8361141f565b925082820261144d8161141f565b91507f800000000000000000000000000000000000000000000000000000000000000084146000841216156114855761148461122e565b5b828205841483151761149a5761149961122e565b5b5092915050565b60006114ac8261141f565b91506114b78361141f565b9250828201905082811215600083121683821260008412151617156114df576114de61122e565b5b92915050565b600081519050919050565b600082825260208201905092915050565b60005b8381101561151f578082015181840152602081019050611504565b60008484015250505050565b6000601f19601f8301169050919050565b6000611547826114e5565b61155181856114f0565b9350611561818560208601611501565b61156a8161152b565b840191505092915050565b6000604082019050818103600083015261158f818561153c565b905061159e60208301846111d5565b939250505056fea264697066735822122075b211026d9acd2e3533a755cc673c38817ff64729a655f8acdc7ab14dcdbe7664736f6c63430008120033",
  "linkReferences": {},
  "deployedLinkReferences": {}
}