{
  "_format": "hh-sol-artifact-1",
  "contractName": "PayoutContract",
  "sourceName": "contracts/Payout.sol",
  "abi": [
    {
      "inputs": [
        {
          "internalType": "address[]",
          "name": "_securities",
          "type": "address[]"
        },
        {
          "internalType": "uint256",
          "name": "_n_assets",
          "type": "uint256"
        }
      ],
      "stateMutability": "nonpayable",
      "type": "constructor"
    },
    {
      "inputs": [],
      "name": "addAsset",
      "outputs": [],
      "stateMutability": "nonpayable",
      "type": "function"
    },
    {
      "inputs": [
        {
          "internalType": "address",
          "name": "_investorAddress",
          "type": "address"
        }
      ],
      "name": "addInvestor",
      "outputs": [],
      "stateMutability": "nonpayable",
      "type": "function"
    },
    {
      "inputs": [],
      "name": "conductPayment",
      "outputs": [],
      "stateMutability": "payable",
      "type": "function"
    },
    {
      "inputs": [
        {
          "internalType": "address",
          "name": "_owner",
          "type": "address"
        }
      ],
      "name": "getBalance",
      "outputs": [
        {
          "internalType": "uint256",
          "name": "",
          "type": "uint256"
        }
      ],
      "stateMutability": "view",
      "type": "function"
    },
    {
      "inputs": [
        {
          "internalType": "uint256",
          "name": "",
          "type": "uint256"
        }
      ],
      "name": "investors",
      "outputs": [
        {
          "internalType": "address",
          "name": "",
          "type": "address"
        }
      ],
      "stateMutability": "view",
      "type": "function"
    },
    {
      "inputs": [
        {
          "internalType": "int256[][]",
          "name": "L",
          "type": "int256[][]"
        },
        {
          "internalType": "int256[][]",
          "name": "R",
          "type": "int256[][]"
        },
        {
          "internalType": "int256[]",
          "name": "_assetsCost",
          "type": "int256[]"
        }
      ],
      "name": "payoutLowRank",
      "outputs": [],
      "stateMutability": "payable",
      "type": "function"
    },
    {
      "inputs": [
        {
          "internalType": "uint256[][]",
          "name": "_payoutMatrix",
          "type": "uint256[][]"
        },
        {
          "internalType": "uint256[]",
          "name": "_assetsCost",
          "type": "uint256[]"
        }
      ],
      "name": "payoutNaive",
      "outputs": [],
      "stateMutability": "payable",
      "type": "function"
    },
    {
      "inputs": [
        {
          "internalType": "uint256[]",
          "name": "_column_id",
          "type": "uint256[]"
        },
        {
          "internalType": "uint256[][]",
          "name": "_columns",
          "type": "uint256[][]"
        },
        {
          "internalType": "uint256[]",
          "name": "_assetsCost",
          "type": "uint256[]"
        }
      ],
      "name": "payoutRepeatedColumns",
      "outputs": [],
      "stateMutability": "payable",
      "type": "function"
    },
    {
      "inputs": [
        {
          "internalType": "uint256[3][]",
          "name": "_payoutTriples",
          "type": "uint256[3][]"
        },
        {
          "internalType": "uint256[]",
          "name": "_assetsCost",
          "type": "uint256[]"
        }
      ],
      "name": "payoutSparse",
      "outputs": [],
      "stateMutability": "payable",
      "type": "function"
    }
  ],
  "bytecode": "0x60806040526000805560006001553480156200001a57600080fd5b50604051620017d1380380620017d1833981810160405281019062000040919062000347565b81516000819055508060018190555081600290805190602001906200006792919062000070565b505050620003ad565b828054828255906000526020600020908101928215620000ec579160200282015b82811115620000eb5782518260006101000a81548173ffffffffffffffffffffffffffffffffffffffff021916908373ffffffffffffffffffffffffffffffffffffffff1602179055509160200191906001019062000091565b5b509050620000fb9190620000ff565b5090565b5b808211156200011a57600081600090555060010162000100565b5090565b6000604051905090565b600080fd5b600080fd5b600080fd5b6000601f19601f8301169050919050565b7f4e487b7100000000000000000000000000000000000000000000000000000000600052604160045260246000fd5b620001828262000137565b810181811067ffffffffffffffff82111715620001a457620001a362000148565b5b80604052505050565b6000620001b96200011e565b9050620001c7828262000177565b919050565b600067ffffffffffffffff821115620001ea57620001e962000148565b5b602082029050602081019050919050565b600080fd5b600073ffffffffffffffffffffffffffffffffffffffff82169050919050565b60006200022d8262000200565b9050919050565b6200023f8162000220565b81146200024b57600080fd5b50565b6000815190506200025f8162000234565b92915050565b60006200027c6200027684620001cc565b620001ad565b90508083825260208201905060208402830185811115620002a257620002a1620001fb565b5b835b81811015620002cf5780620002ba88826200024e565b845260208401935050602081019050620002a4565b5050509392505050565b600082601f830112620002f157620002f062000132565b5b81516200030384826020860162000265565b91505092915050565b6000819050919050565b62000321816200030c565b81146200032d57600080fd5b50565b600081519050620003418162000316565b92915050565b6000806040838503121562000361576200036062000128565b5b600083015167ffffffffffffffff8111156200038257620003816200012d565b5b6200039085828601620002d9565b9250506020620003a38582860162000330565b9150509250929050565b61141480620003bd6000396000f3fe6080604052600436106100865760003560e01c80636996c99d116100595780636996c99d1461011757806391f6011914610133578063e42c3fab1461013d578063e641bde114610159578063f8b2cb4f1461018257610086565b80630d5528c11461008b5780632f4fc808146100a75780633feb5f2b146100c35780636452037c14610100575b600080fd5b6100a560048036038101906100a09190610c4a565b6101bf565b005b6100c160048036038101906100bc9190610d21565b610347565b005b3480156100cf57600080fd5b506100ea60048036038101906100e59190610e0b565b6104d4565b6040516100f79190610e79565b60405180910390f35b34801561010c57600080fd5b50610115610513565b005b610131600480360381019061012c9190610f40565b61052d565b005b61013b6107cd565b005b61015760048036038101906101529190610ff4565b610975565b005b34801561016557600080fd5b50610180600480360381019061017b91906110a1565b610abf565b005b34801561018e57600080fd5b506101a960048036038101906101a491906110a1565b610b3c565b6040516101b691906110dd565b60405180910390f35b60005b848490508110156103405760008585838181106101e2576101e16110f8565b5b9050606002016000600381106101fb576101fa6110f8565b5b602002013590506000868684818110610217576102166110f8565b5b9050606002016001600381106102305761022f6110f8565b5b60200201359050600087878581811061024c5761024b6110f8565b5b905060600201600260038110610265576102646110f8565b5b60200201359050600081878786818110610282576102816110f8565b5b905060200201356102939190611156565b90508060036000600286815481106102ae576102ad6110f8565b5b9060005260206000200160009054906101000a900473ffffffffffffffffffffffffffffffffffffffff1673ffffffffffffffffffffffffffffffffffffffff1673ffffffffffffffffffffffffffffffffffffffff16815260200190815260200160002060008282546103229190611198565b92505081905550505050508080610338906111cc565b9150506101c2565b5050505050565b60005b848490508110156104cb576000805b848490508110156103e357868684818110610377576103766110f8565b5b90506020028101906103899190611223565b8281811061039a576103996110f8565b5b905060200201358585838181106103b4576103b36110f8565b5b905060200201356103c59190611156565b826103d09190611198565b9150806103dc906111cc565b9050610359565b5060005b868690508110156104b85782898983818110610406576104056110f8565b5b90506020020135036104a75781600360006002848154811061042b5761042a6110f8565b5b9060005260206000200160009054906101000a900473ffffffffffffffffffffffffffffffffffffffff1673ffffffffffffffffffffffffffffffffffffffff1673ffffffffffffffffffffffffffffffffffffffff168152602001908152602001600020600082825461049f9190611198565b925050819055505b806104b1906111cc565b90506103e7565b5050806104c4906111cc565b905061034a565b50505050505050565b600281815481106104e457600080fd5b906000526020600020016000915054906101000a900473ffffffffffffffffffffffffffffffffffffffff1681565b60016000815480929190610526906111cc565b9190505550565b600086866000818110610543576105426110f8565b5b90506020028101906105559190611286565b9050905060008167ffffffffffffffff811115610575576105746112e9565b5b6040519080825280602002602001820160405280156105a35781602001602082028036833780820191505090505b50905060005b82811015610671576000805b60015481101561063e578a8a828181106105d2576105d16110f8565b5b90506020028101906105e49190611286565b848181106105f5576105f46110f8565b5b9050602002013587878381811061060f5761060e6110f8565b5b905060200201356106209190611322565b8261062b919061139a565b915080610637906111cc565b90506105b5565b5080838381518110610653576106526110f8565b5b602002602001018181525050508061066a906111cc565b90506105a9565b5060005b6000548110156107c2576000805b8481101561070b5788888281811061069e5761069d6110f8565b5b90506020028101906106b09190611286565b848181106106c1576106c06110f8565b5b905060200201358482815181106106db576106da6110f8565b5b60200260200101516106ed9190611322565b826106f8919061139a565b915080610704906111cc565b9050610683565b50600082905060008213156107af57816003600060028481548110610733576107326110f8565b5b9060005260206000200160009054906101000a900473ffffffffffffffffffffffffffffffffffffffff1673ffffffffffffffffffffffffffffffffffffffff1673ffffffffffffffffffffffffffffffffffffffff16815260200190815260200160002060008282546107a79190611198565b925050819055505b5050806107bb906111cc565b9050610675565b505050505050505050565b60005b60005481101561097257600281815481106107ee576107ed6110f8565b5b9060005260206000200160009054906101000a900473ffffffffffffffffffffffffffffffffffffffff1673ffffffffffffffffffffffffffffffffffffffff166108fc600360006002858154811061084a576108496110f8565b5b9060005260206000200160009054906101000a900473ffffffffffffffffffffffffffffffffffffffff1673ffffffffffffffffffffffffffffffffffffffff1673ffffffffffffffffffffffffffffffffffffffff168152602001908152602001600020549081150290604051600060405180830381858888f193505050501580156108db573d6000803e3d6000fd5b50600060036000600284815481106108f6576108f56110f8565b5b9060005260206000200160009054906101000a900473ffffffffffffffffffffffffffffffffffffffff1673ffffffffffffffffffffffffffffffffffffffff1673ffffffffffffffffffffffffffffffffffffffff16815260200190815260200160002081905550808061096a906111cc565b9150506107d0565b50565b60005b600054811015610ab8576000805b600154811015610a0f578484828181106109a3576109a26110f8565b5b905060200201358787838181106109bd576109bc6110f8565b5b90506020028101906109cf9190611223565b858181106109e0576109df6110f8565b5b905060200201356109f19190611156565b826109fc9190611198565b915080610a08906111cc565b9050610986565b50806003600060028581548110610a2957610a286110f8565b5b9060005260206000200160009054906101000a900473ffffffffffffffffffffffffffffffffffffffff1673ffffffffffffffffffffffffffffffffffffffff1673ffffffffffffffffffffffffffffffffffffffff1681526020019081526020016000206000828254610a9d9190611198565b92505081905550508080610ab0906111cc565b915050610978565b5050505050565b6002819080600181540180825580915050600190039060005260206000200160009091909190916101000a81548173ffffffffffffffffffffffffffffffffffffffff021916908373ffffffffffffffffffffffffffffffffffffffff160217905550600080815480929190610b34906111cc565b919050555050565b6000600360008373ffffffffffffffffffffffffffffffffffffffff1673ffffffffffffffffffffffffffffffffffffffff168152602001908152602001600020549050919050565b600080fd5b600080fd5b600080fd5b600080fd5b600080fd5b60008083601f840112610bb457610bb3610b8f565b5b8235905067ffffffffffffffff811115610bd157610bd0610b94565b5b602083019150836060820283011115610bed57610bec610b99565b5b9250929050565b60008083601f840112610c0a57610c09610b8f565b5b8235905067ffffffffffffffff811115610c2757610c26610b94565b5b602083019150836020820283011115610c4357610c42610b99565b5b9250929050565b60008060008060408587031215610c6457610c63610b85565b5b600085013567ffffffffffffffff811115610c8257610c81610b8a565b5b610c8e87828801610b9e565b9450945050602085013567ffffffffffffffff811115610cb157610cb0610b8a565b5b610cbd87828801610bf4565b925092505092959194509250565b60008083601f840112610ce157610ce0610b8f565b5b8235905067ffffffffffffffff811115610cfe57610cfd610b94565b5b602083019150836020820283011115610d1a57610d19610b99565b5b9250929050565b60008060008060008060608789031215610d3e57610d3d610b85565b5b600087013567ffffffffffffffff811115610d5c57610d5b610b8a565b5b610d6889828a01610bf4565b9650965050602087013567ffffffffffffffff811115610d8b57610d8a610b8a565b5b610d9789828a01610ccb565b9450945050604087013567ffffffffffffffff811115610dba57610db9610b8a565b5b610dc689828a01610bf4565b92509250509295509295509295565b6000819050919050565b610de881610dd5565b8114610df357600080fd5b50565b600081359050610e0581610ddf565b92915050565b600060208284031215610e2157610e20610b85565b5b6000610e2f84828501610df6565b91505092915050565b600073ffffffffffffffffffffffffffffffffffffffff82169050919050565b6000610e6382610e38565b9050919050565b610e7381610e58565b82525050565b6000602082019050610e8e6000830184610e6a565b92915050565b60008083601f840112610eaa57610ea9610b8f565b5b8235905067ffffffffffffffff811115610ec757610ec6610b94565b5b602083019150836020820283011115610ee357610ee2610b99565b5b9250929050565b60008083601f840112610f0057610eff610b8f565b5b8235905067ffffffffffffffff811115610f1d57610f1c610b94565b5b602083019150836020820283011115610f3957610f38610b99565b5b9250929050565b60008060008060008060608789031215610f5d57610f5c610b85565b5b600087013567ffffffffffffffff811115610f7b57610f7a610b8a565b5b610f8789828a01610e94565b9650965050602087013567ffffffffffffffff811115610faa57610fa9610b8a565b5b610fb689828a01610e94565b9450945050604087013567ffffffffffffffff811115610fd957610fd8610b8a565b5b610fe589828a01610eea565b92509250509295509295509295565b6000806000806040858703121561100e5761100d610b85565b5b600085013567ffffffffffffffff81111561102c5761102b610b8a565b5b61103887828801610ccb565b9450945050602085013567ffffffffffffffff81111561105b5761105a610b8a565b5b61106787828801610bf4565b925092505092959194509250565b61107e81610e58565b811461108957600080fd5b50565b60008135905061109b81611075565b92915050565b6000602082840312156110b7576110b6610b85565b5b60006110c58482850161108c565b91505092915050565b6110d781610dd5565b82525050565b60006020820190506110f260008301846110ce565b92915050565b7f4e487b7100000000000000000000000000000000000000000000000000000000600052603260045260246000fd5b7f4e487b7100000000000000000000000000000000000000000000000000000000600052601160045260246000fd5b600061116182610dd5565b915061116c83610dd5565b925082820261117a81610dd5565b9150828204841483151761119157611190611127565b5b5092915050565b60006111a382610dd5565b91506111ae83610dd5565b92508282019050808211156111c6576111c5611127565b5b92915050565b60006111d782610dd5565b91507fffffffffffffffffffffffffffffffffffffffffffffffffffffffffffffffff820361120957611208611127565b5b600182019050919050565b600080fd5b600080fd5b600080fd5b600080833560016020038436030381126112405761123f611214565b5b80840192508235915067ffffffffffffffff82111561126257611261611219565b5b60208301925060208202360383131561127e5761127d61121e565b5b509250929050565b600080833560016020038436030381126112a3576112a2611214565b5b80840192508235915067ffffffffffffffff8211156112c5576112c4611219565b5b6020830192506020820236038313156112e1576112e061121e565b5b509250929050565b7f4e487b7100000000000000000000000000000000000000000000000000000000600052604160045260246000fd5b6000819050919050565b600061132d82611318565b915061133883611318565b925082820261134681611318565b91507f8000000000000000000000000000000000000000000000000000000000000000841460008412161561137e5761137d611127565b5b828205841483151761139357611392611127565b5b5092915050565b60006113a582611318565b91506113b083611318565b9250828201905082811215600083121683821260008412151617156113d8576113d7611127565b5b9291505056fea2646970667358221220e0f820d3db45b66d028dab5b5f017315c63c1ce2ca04e0587b601a360b9504f264736f6c63430008120033",
  "linkReferences": {},
  "deployedLinkReferences": {}
}