{
  "_format": "hh-sol-artifact-1",
  "contractName": "PayoutContract",
  "sourceName": "contracts/Payout.sol",
  "abi": [
    {
      "inputs": [
        {
          "internalType": "address[]",
          "name": "_investors",
          "type": "address[]"
        },
        {
          "internalType": "uint256",
          "name": "_n_assets",
          "type": "uint256"
        }
      ],
      "stateMutability": "nonpayable",
      "type": "constructor"
    },
    {
      "inputs": [],
      "name": "addAsset",
      "outputs": [],
      "stateMutability": "nonpayable",
      "type": "function"
    },
    {
      "inputs": [
        {
          "internalType": "address",
          "name": "_investorAddress",
          "type": "address"
        }
      ],
      "name": "addInvestor",
      "outputs": [],
      "stateMutability": "nonpayable",
      "type": "function"
    },
    {
      "inputs": [],
      "name": "conductPayment",
      "outputs": [],
      "stateMutability": "payable",
      "type": "function"
    },
    {
      "inputs": [
        {
          "internalType": "address",
          "name": "_owner",
          "type": "address"
        }
      ],
      "name": "getBalance",
      "outputs": [
        {
          "internalType": "uint256",
          "name": "",
          "type": "uint256"
        }
      ],
      "stateMutability": "view",
      "type": "function"
    },
    {
      "inputs": [
        {
          "internalType": "uint256",
          "name": "",
          "type": "uint256"
        }
      ],
      "name": "investors",
      "outputs": [
        {
          "internalType": "address",
          "name": "",
          "type": "address"
        }
      ],
      "stateMutability": "view",
      "type": "function"
    },
    {
      "inputs": [
        {
          "internalType": "uint256[][]",
          "name": "_payoutMatrix",
          "type": "uint256[][]"
        },
        {
          "internalType": "uint256[]",
          "name": "_assetsCost",
          "type": "uint256[]"
        }
      ],
      "name": "payoutNaive",
      "outputs": [],
      "stateMutability": "payable",
      "type": "function"
    },
    {
      "inputs": [
        {
          "internalType": "uint256[3][]",
          "name": "_payoutTriples",
          "type": "uint256[3][]"
        },
        {
          "internalType": "uint256[]",
          "name": "_assetsCost",
          "type": "uint256[]"
        }
      ],
      "name": "payoutSparse",
      "outputs": [],
      "stateMutability": "payable",
      "type": "function"
    }
  ],
  "bytecode": "0x60806040526000805560006001553480156200001a57600080fd5b506040516200121738038062001217833981810160405281019062000040919062000347565b81516000819055508060018190555081600290805190602001906200006792919062000070565b505050620003ad565b828054828255906000526020600020908101928215620000ec579160200282015b82811115620000eb5782518260006101000a81548173ffffffffffffffffffffffffffffffffffffffff021916908373ffffffffffffffffffffffffffffffffffffffff1602179055509160200191906001019062000091565b5b509050620000fb9190620000ff565b5090565b5b808211156200011a57600081600090555060010162000100565b5090565b6000604051905090565b600080fd5b600080fd5b600080fd5b6000601f19601f8301169050919050565b7f4e487b7100000000000000000000000000000000000000000000000000000000600052604160045260246000fd5b620001828262000137565b810181811067ffffffffffffffff82111715620001a457620001a362000148565b5b80604052505050565b6000620001b96200011e565b9050620001c7828262000177565b919050565b600067ffffffffffffffff821115620001ea57620001e962000148565b5b602082029050602081019050919050565b600080fd5b600073ffffffffffffffffffffffffffffffffffffffff82169050919050565b60006200022d8262000200565b9050919050565b6200023f8162000220565b81146200024b57600080fd5b50565b6000815190506200025f8162000234565b92915050565b60006200027c6200027684620001cc565b620001ad565b90508083825260208201905060208402830185811115620002a257620002a1620001fb565b5b835b81811015620002cf5780620002ba88826200024e565b845260208401935050602081019050620002a4565b5050509392505050565b600082601f830112620002f157620002f062000132565b5b81516200030384826020860162000265565b91505092915050565b6000819050919050565b62000321816200030c565b81146200032d57600080fd5b50565b600081519050620003418162000316565b92915050565b6000806040838503121562000361576200036062000128565b5b600083015167ffffffffffffffff8111156200038257620003816200012d565b5b6200039085828601620002d9565b9250506020620003a38582860162000330565b9150509250929050565b610e5a80620003bd6000396000f3fe6080604052600436106100705760003560e01c806391f601191161004e57806391f60119146100e5578063e42c3fab146100ef578063e641bde11461010b578063f8b2cb4f1461013457610070565b80630d5528c1146100755780633feb5f2b146100915780636452037c146100ce575b600080fd5b61008f600480360381019061008a9190610a2b565b610171565b005b34801561009d57600080fd5b506100b860048036038101906100b39190610aa3565b610304565b6040516100c59190610b11565b60405180910390f35b3480156100da57600080fd5b506100e3610343565b005b6100ed61035d565b005b61010960048036038101906101049190610c0d565b610505565b005b34801561011757600080fd5b50610132600480360381019061012d9190610cb1565b61064e565b005b34801561014057600080fd5b5061015b60048036038101906101569190610cb1565b6106cb565b6040516101689190610ced565b60405180910390f35b60005b82518110156102f757600083828151811061019257610191610d08565b5b60200260200101516000600381106101ad576101ac610d08565b5b6020020151905060008483815181106101c9576101c8610d08565b5b60200260200101516001600381106101e4576101e3610d08565b5b602002015190506000858481518110610200576101ff610d08565b5b602002602001015160026003811061021b5761021a610d08565b5b6020020151905060008186848151811061023857610237610d08565b5b602002602001015161024a9190610d66565b905080600360006002878154811061026557610264610d08565b5b9060005260206000200160009054906101000a900473ffffffffffffffffffffffffffffffffffffffff1673ffffffffffffffffffffffffffffffffffffffff1673ffffffffffffffffffffffffffffffffffffffff16815260200190815260200160002060008282546102d99190610da8565b925050819055505050505080806102ef90610ddc565b915050610174565b5061030061035d565b5050565b6002818154811061031457600080fd5b906000526020600020016000915054906101000a900473ffffffffffffffffffffffffffffffffffffffff1681565b6001600081548092919061035690610ddc565b9190505550565b60005b600054811015610502576002818154811061037e5761037d610d08565b5b9060005260206000200160009054906101000a900473ffffffffffffffffffffffffffffffffffffffff1673ffffffffffffffffffffffffffffffffffffffff166108fc60036000600285815481106103da576103d9610d08565b5b9060005260206000200160009054906101000a900473ffffffffffffffffffffffffffffffffffffffff1673ffffffffffffffffffffffffffffffffffffffff1673ffffffffffffffffffffffffffffffffffffffff168152602001908152602001600020549081150290604051600060405180830381858888f1935050505015801561046b573d6000803e3d6000fd5b506000600360006002848154811061048657610485610d08565b5b9060005260206000200160009054906101000a900473ffffffffffffffffffffffffffffffffffffffff1673ffffffffffffffffffffffffffffffffffffffff1673ffffffffffffffffffffffffffffffffffffffff1681526020019081526020016000208190555080806104fa90610ddc565b915050610360565b50565b60005b600054811015610641576000805b6001548110156105985783818151811061053357610532610d08565b5b602002602001015185848151811061054e5761054d610d08565b5b6020026020010151828151811061056857610567610d08565b5b602002602001015161057a9190610d66565b826105859190610da8565b91508061059190610ddc565b9050610516565b508060036000600285815481106105b2576105b1610d08565b5b9060005260206000200160009054906101000a900473ffffffffffffffffffffffffffffffffffffffff1673ffffffffffffffffffffffffffffffffffffffff1673ffffffffffffffffffffffffffffffffffffffff16815260200190815260200160002060008282546106269190610da8565b9250508190555050808061063990610ddc565b915050610508565b5061064a61035d565b5050565b6002819080600181540180825580915050600190039060005260206000200160009091909190916101000a81548173ffffffffffffffffffffffffffffffffffffffff021916908373ffffffffffffffffffffffffffffffffffffffff1602179055506000808154809291906106c390610ddc565b919050555050565b6000600360008373ffffffffffffffffffffffffffffffffffffffff1673ffffffffffffffffffffffffffffffffffffffff168152602001908152602001600020549050919050565b6000604051905090565b600080fd5b600080fd5b600080fd5b6000601f19601f8301169050919050565b7f4e487b7100000000000000000000000000000000000000000000000000000000600052604160045260246000fd5b6107768261072d565b810181811067ffffffffffffffff821117156107955761079461073e565b5b80604052505050565b60006107a8610714565b90506107b4828261076d565b919050565b600067ffffffffffffffff8211156107d4576107d361073e565b5b602082029050602081019050919050565b600080fd5b600067ffffffffffffffff8211156108055761080461073e565b5b602082029050919050565b6000819050919050565b61082381610810565b811461082e57600080fd5b50565b6000813590506108408161081a565b92915050565b6000610859610854846107ea565b61079e565b90508060208402830185811115610873576108726107e5565b5b835b8181101561089c57806108888882610831565b845260208401935050602081019050610875565b5050509392505050565b600082601f8301126108bb576108ba610728565b5b60036108c8848285610846565b91505092915050565b60006108e46108df846107b9565b61079e565b90508083825260208201905060608402830185811115610907576109066107e5565b5b835b81811015610930578061091c88826108a6565b845260208401935050606081019050610909565b5050509392505050565b600082601f83011261094f5761094e610728565b5b813561095f8482602086016108d1565b91505092915050565b600067ffffffffffffffff8211156109835761098261073e565b5b602082029050602081019050919050565b60006109a76109a284610968565b61079e565b905080838252602082019050602084028301858111156109ca576109c96107e5565b5b835b818110156109f357806109df8882610831565b8452602084019350506020810190506109cc565b5050509392505050565b600082601f830112610a1257610a11610728565b5b8135610a22848260208601610994565b91505092915050565b60008060408385031215610a4257610a4161071e565b5b600083013567ffffffffffffffff811115610a6057610a5f610723565b5b610a6c8582860161093a565b925050602083013567ffffffffffffffff811115610a8d57610a8c610723565b5b610a99858286016109fd565b9150509250929050565b600060208284031215610ab957610ab861071e565b5b6000610ac784828501610831565b91505092915050565b600073ffffffffffffffffffffffffffffffffffffffff82169050919050565b6000610afb82610ad0565b9050919050565b610b0b81610af0565b82525050565b6000602082019050610b266000830184610b02565b92915050565b600067ffffffffffffffff821115610b4757610b4661073e565b5b602082029050602081019050919050565b6000610b6b610b6684610b2c565b61079e565b90508083825260208201905060208402830185811115610b8e57610b8d6107e5565b5b835b81811015610bd557803567ffffffffffffffff811115610bb357610bb2610728565b5b808601610bc089826109fd565b85526020850194505050602081019050610b90565b5050509392505050565b600082601f830112610bf457610bf3610728565b5b8135610c04848260208601610b58565b91505092915050565b60008060408385031215610c2457610c2361071e565b5b600083013567ffffffffffffffff811115610c4257610c41610723565b5b610c4e85828601610bdf565b925050602083013567ffffffffffffffff811115610c6f57610c6e610723565b5b610c7b858286016109fd565b9150509250929050565b610c8e81610af0565b8114610c9957600080fd5b50565b600081359050610cab81610c85565b92915050565b600060208284031215610cc757610cc661071e565b5b6000610cd584828501610c9c565b91505092915050565b610ce781610810565b82525050565b6000602082019050610d026000830184610cde565b92915050565b7f4e487b7100000000000000000000000000000000000000000000000000000000600052603260045260246000fd5b7f4e487b7100000000000000000000000000000000000000000000000000000000600052601160045260246000fd5b6000610d7182610810565b9150610d7c83610810565b9250828202610d8a81610810565b91508282048414831517610da157610da0610d37565b5b5092915050565b6000610db382610810565b9150610dbe83610810565b9250828201905080821115610dd657610dd5610d37565b5b92915050565b6000610de782610810565b91507fffffffffffffffffffffffffffffffffffffffffffffffffffffffffffffffff8203610e1957610e18610d37565b5b60018201905091905056fea2646970667358221220731fe2a225bf9ef06e9bd8563ef04314fc00107ee1787890cc208db3049b31b564736f6c63430008120033",
  "linkReferences": {},
  "deployedLinkReferences": {}
}