{
  "_format": "hh-sol-artifact-1",
  "contractName": "PayoutContract",
  "sourceName": "contracts/Payout.sol",
  "abi": [
    {
      "inputs": [
        {
          "internalType": "address[]",
          "name": "_investors",
          "type": "address[]"
        },
        {
          "internalType": "uint256",
          "name": "_n_assets",
          "type": "uint256"
        }
      ],
      "stateMutability": "nonpayable",
      "type": "constructor"
    },
    {
      "inputs": [],
      "name": "addAsset",
      "outputs": [],
      "stateMutability": "nonpayable",
      "type": "function"
    },
    {
      "inputs": [
        {
          "internalType": "address",
          "name": "_investorAddress",
          "type": "address"
        }
      ],
      "name": "addInvestor",
      "outputs": [],
      "stateMutability": "nonpayable",
      "type": "function"
    },
    {
      "inputs": [],
      "name": "conductPayment",
      "outputs": [],
      "stateMutability": "payable",
      "type": "function"
    },
    {
      "inputs": [
        {
          "internalType": "address",
          "name": "_owner",
          "type": "address"
        }
      ],
      "name": "getBalance",
      "outputs": [
        {
          "internalType": "uint256",
          "name": "",
          "type": "uint256"
        }
      ],
      "stateMutability": "view",
      "type": "function"
    },
    {
      "inputs": [
        {
          "internalType": "uint256",
          "name": "",
          "type": "uint256"
        }
      ],
      "name": "investors",
      "outputs": [
        {
          "internalType": "address",
          "name": "",
          "type": "address"
        }
      ],
      "stateMutability": "view",
      "type": "function"
    },
    {
      "inputs": [
        {
          "internalType": "uint256[][]",
          "name": "_payoutMatrix",
          "type": "uint256[][]"
        },
        {
          "internalType": "uint256[]",
          "name": "_assetsCost",
          "type": "uint256[]"
        }
      ],
      "name": "payoutNaive",
      "outputs": [],
      "stateMutability": "payable",
      "type": "function"
    },
    {
      "inputs": [
        {
          "internalType": "uint256[3][]",
          "name": "_payoutTriples",
          "type": "uint256[3][]"
        },
        {
          "internalType": "uint256[]",
          "name": "_assetsCost",
          "type": "uint256[]"
        }
      ],
      "name": "payoutSparse",
      "outputs": [],
      "stateMutability": "payable",
      "type": "function"
    }
  ],
  "bytecode": "0x60806040526000805560006001553480156200001a57600080fd5b506040516200120738038062001207833981810160405281019062000040919062000347565b81516000819055508060018190555081600290805190602001906200006792919062000070565b505050620003ad565b828054828255906000526020600020908101928215620000ec579160200282015b82811115620000eb5782518260006101000a81548173ffffffffffffffffffffffffffffffffffffffff021916908373ffffffffffffffffffffffffffffffffffffffff1602179055509160200191906001019062000091565b5b509050620000fb9190620000ff565b5090565b5b808211156200011a57600081600090555060010162000100565b5090565b6000604051905090565b600080fd5b600080fd5b600080fd5b6000601f19601f8301169050919050565b7f4e487b7100000000000000000000000000000000000000000000000000000000600052604160045260246000fd5b620001828262000137565b810181811067ffffffffffffffff82111715620001a457620001a362000148565b5b80604052505050565b6000620001b96200011e565b9050620001c7828262000177565b919050565b600067ffffffffffffffff821115620001ea57620001e962000148565b5b602082029050602081019050919050565b600080fd5b600073ffffffffffffffffffffffffffffffffffffffff82169050919050565b60006200022d8262000200565b9050919050565b6200023f8162000220565b81146200024b57600080fd5b50565b6000815190506200025f8162000234565b92915050565b60006200027c6200027684620001cc565b620001ad565b90508083825260208201905060208402830185811115620002a257620002a1620001fb565b5b835b81811015620002cf5780620002ba88826200024e565b845260208401935050602081019050620002a4565b5050509392505050565b600082601f830112620002f157620002f062000132565b5b81516200030384826020860162000265565b91505092915050565b6000819050919050565b62000321816200030c565b81146200032d57600080fd5b50565b600081519050620003418162000316565b92915050565b6000806040838503121562000361576200036062000128565b5b600083015167ffffffffffffffff8111156200038257620003816200012d565b5b6200039085828601620002d9565b9250506020620003a38582860162000330565b9150509250929050565b610e4a80620003bd6000396000f3fe6080604052600436106100705760003560e01c806391f601191161004e57806391f60119146100e5578063e42c3fab146100ef578063e641bde11461010b578063f8b2cb4f1461013457610070565b80630d5528c1146100755780633feb5f2b146100915780636452037c146100ce575b600080fd5b61008f600480360381019061008a9190610a1b565b610171565b005b34801561009d57600080fd5b506100b860048036038101906100b39190610a93565b6102fc565b6040516100c59190610b01565b60405180910390f35b3480156100da57600080fd5b506100e361033b565b005b6100ed610355565b005b61010960048036038101906101049190610bfd565b6104fd565b005b34801561011757600080fd5b50610132600480360381019061012d9190610ca1565b61063e565b005b34801561014057600080fd5b5061015b60048036038101906101569190610ca1565b6106bb565b6040516101689190610cdd565b60405180910390f35b60005b82518110156102f757600083828151811061019257610191610cf8565b5b60200260200101516000600381106101ad576101ac610cf8565b5b6020020151905060008483815181106101c9576101c8610cf8565b5b60200260200101516001600381106101e4576101e3610cf8565b5b602002015190506000858481518110610200576101ff610cf8565b5b602002602001015160026003811061021b5761021a610cf8565b5b6020020151905060008186848151811061023857610237610cf8565b5b602002602001015161024a9190610d56565b905080600360006002878154811061026557610264610cf8565b5b9060005260206000200160009054906101000a900473ffffffffffffffffffffffffffffffffffffffff1673ffffffffffffffffffffffffffffffffffffffff1673ffffffffffffffffffffffffffffffffffffffff16815260200190815260200160002060008282546102d99190610d98565b925050819055505050505080806102ef90610dcc565b915050610174565b505050565b6002818154811061030c57600080fd5b906000526020600020016000915054906101000a900473ffffffffffffffffffffffffffffffffffffffff1681565b6001600081548092919061034e90610dcc565b9190505550565b60005b6000548110156104fa576002818154811061037657610375610cf8565b5b9060005260206000200160009054906101000a900473ffffffffffffffffffffffffffffffffffffffff1673ffffffffffffffffffffffffffffffffffffffff166108fc60036000600285815481106103d2576103d1610cf8565b5b9060005260206000200160009054906101000a900473ffffffffffffffffffffffffffffffffffffffff1673ffffffffffffffffffffffffffffffffffffffff1673ffffffffffffffffffffffffffffffffffffffff168152602001908152602001600020549081150290604051600060405180830381858888f19350505050158015610463573d6000803e3d6000fd5b506000600360006002848154811061047e5761047d610cf8565b5b9060005260206000200160009054906101000a900473ffffffffffffffffffffffffffffffffffffffff1673ffffffffffffffffffffffffffffffffffffffff1673ffffffffffffffffffffffffffffffffffffffff1681526020019081526020016000208190555080806104f290610dcc565b915050610358565b50565b60005b600054811015610639576000805b6001548110156105905783818151811061052b5761052a610cf8565b5b602002602001015185848151811061054657610545610cf8565b5b602002602001015182815181106105605761055f610cf8565b5b60200260200101516105729190610d56565b8261057d9190610d98565b91508061058990610dcc565b905061050e565b508060036000600285815481106105aa576105a9610cf8565b5b9060005260206000200160009054906101000a900473ffffffffffffffffffffffffffffffffffffffff1673ffffffffffffffffffffffffffffffffffffffff1673ffffffffffffffffffffffffffffffffffffffff168152602001908152602001600020600082825461061e9190610d98565b9250508190555050808061063190610dcc565b915050610500565b505050565b6002819080600181540180825580915050600190039060005260206000200160009091909190916101000a81548173ffffffffffffffffffffffffffffffffffffffff021916908373ffffffffffffffffffffffffffffffffffffffff1602179055506000808154809291906106b390610dcc565b919050555050565b6000600360008373ffffffffffffffffffffffffffffffffffffffff1673ffffffffffffffffffffffffffffffffffffffff168152602001908152602001600020549050919050565b6000604051905090565b600080fd5b600080fd5b600080fd5b6000601f19601f8301169050919050565b7f4e487b7100000000000000000000000000000000000000000000000000000000600052604160045260246000fd5b6107668261071d565b810181811067ffffffffffffffff821117156107855761078461072e565b5b80604052505050565b6000610798610704565b90506107a4828261075d565b919050565b600067ffffffffffffffff8211156107c4576107c361072e565b5b602082029050602081019050919050565b600080fd5b600067ffffffffffffffff8211156107f5576107f461072e565b5b602082029050919050565b6000819050919050565b61081381610800565b811461081e57600080fd5b50565b6000813590506108308161080a565b92915050565b6000610849610844846107da565b61078e565b90508060208402830185811115610863576108626107d5565b5b835b8181101561088c57806108788882610821565b845260208401935050602081019050610865565b5050509392505050565b600082601f8301126108ab576108aa610718565b5b60036108b8848285610836565b91505092915050565b60006108d46108cf846107a9565b61078e565b905080838252602082019050606084028301858111156108f7576108f66107d5565b5b835b81811015610920578061090c8882610896565b8452602084019350506060810190506108f9565b5050509392505050565b600082601f83011261093f5761093e610718565b5b813561094f8482602086016108c1565b91505092915050565b600067ffffffffffffffff8211156109735761097261072e565b5b602082029050602081019050919050565b600061099761099284610958565b61078e565b905080838252602082019050602084028301858111156109ba576109b96107d5565b5b835b818110156109e357806109cf8882610821565b8452602084019350506020810190506109bc565b5050509392505050565b600082601f830112610a0257610a01610718565b5b8135610a12848260208601610984565b91505092915050565b60008060408385031215610a3257610a3161070e565b5b600083013567ffffffffffffffff811115610a5057610a4f610713565b5b610a5c8582860161092a565b925050602083013567ffffffffffffffff811115610a7d57610a7c610713565b5b610a89858286016109ed565b9150509250929050565b600060208284031215610aa957610aa861070e565b5b6000610ab784828501610821565b91505092915050565b600073ffffffffffffffffffffffffffffffffffffffff82169050919050565b6000610aeb82610ac0565b9050919050565b610afb81610ae0565b82525050565b6000602082019050610b166000830184610af2565b92915050565b600067ffffffffffffffff821115610b3757610b3661072e565b5b602082029050602081019050919050565b6000610b5b610b5684610b1c565b61078e565b90508083825260208201905060208402830185811115610b7e57610b7d6107d5565b5b835b81811015610bc557803567ffffffffffffffff811115610ba357610ba2610718565b5b808601610bb089826109ed565b85526020850194505050602081019050610b80565b5050509392505050565b600082601f830112610be457610be3610718565b5b8135610bf4848260208601610b48565b91505092915050565b60008060408385031215610c1457610c1361070e565b5b600083013567ffffffffffffffff811115610c3257610c31610713565b5b610c3e85828601610bcf565b925050602083013567ffffffffffffffff811115610c5f57610c5e610713565b5b610c6b858286016109ed565b9150509250929050565b610c7e81610ae0565b8114610c8957600080fd5b50565b600081359050610c9b81610c75565b92915050565b600060208284031215610cb757610cb661070e565b5b6000610cc584828501610c8c565b91505092915050565b610cd781610800565b82525050565b6000602082019050610cf26000830184610cce565b92915050565b7f4e487b7100000000000000000000000000000000000000000000000000000000600052603260045260246000fd5b7f4e487b7100000000000000000000000000000000000000000000000000000000600052601160045260246000fd5b6000610d6182610800565b9150610d6c83610800565b9250828202610d7a81610800565b91508282048414831517610d9157610d90610d27565b5b5092915050565b6000610da382610800565b9150610dae83610800565b9250828201905080821115610dc657610dc5610d27565b5b92915050565b6000610dd782610800565b91507fffffffffffffffffffffffffffffffffffffffffffffffffffffffffffffffff8203610e0957610e08610d27565b5b60018201905091905056fea2646970667358221220eb83ecde64ee047e85826bc559da0e3c0e5b92f87be3cecf9776c63e34ef626664736f6c63430008120033",
  "linkReferences": {},
  "deployedLinkReferences": {}
}