{
  "_format": "hh-sol-artifact-1",
  "contractName": "PayoutContract",
  "sourceName": "contracts/Payout.sol",
  "abi": [
    {
      "inputs": [
        {
          "internalType": "address[]",
          "name": "_investors",
          "type": "address[]"
        },
        {
          "internalType": "uint256",
          "name": "_n_assets",
          "type": "uint256"
        }
      ],
      "stateMutability": "nonpayable",
      "type": "constructor"
    },
    {
      "inputs": [],
      "name": "addAsset",
      "outputs": [],
      "stateMutability": "nonpayable",
      "type": "function"
    },
    {
      "inputs": [
        {
          "internalType": "address",
          "name": "_investorAddress",
          "type": "address"
        }
      ],
      "name": "addInvestor",
      "outputs": [],
      "stateMutability": "nonpayable",
      "type": "function"
    },
    {
      "inputs": [],
      "name": "conductPayment",
      "outputs": [],
      "stateMutability": "payable",
      "type": "function"
    },
    {
      "inputs": [
        {
          "internalType": "address",
          "name": "_owner",
          "type": "address"
        }
      ],
      "name": "getBalance",
      "outputs": [
        {
          "internalType": "uint256",
          "name": "",
          "type": "uint256"
        }
      ],
      "stateMutability": "view",
      "type": "function"
    },
    {
      "inputs": [
        {
          "internalType": "uint256",
          "name": "",
          "type": "uint256"
        }
      ],
      "name": "investors",
      "outputs": [
        {
          "internalType": "address",
          "name": "",
          "type": "address"
        }
      ],
      "stateMutability": "view",
      "type": "function"
    },
    {
      "inputs": [
        {
          "internalType": "uint256[][]",
          "name": "L",
          "type": "uint256[][]"
        },
        {
          "internalType": "uint256[][]",
          "name": "R",
          "type": "uint256[][]"
        },
        {
          "internalType": "uint256[]",
          "name": "_assetsCost",
          "type": "uint256[]"
        }
      ],
      "name": "payoutLowRank",
      "outputs": [],
      "stateMutability": "payable",
      "type": "function"
    },
    {
      "inputs": [
        {
          "internalType": "uint256[][]",
          "name": "_payoutMatrix",
          "type": "uint256[][]"
        },
        {
          "internalType": "uint256[]",
          "name": "_assetsCost",
          "type": "uint256[]"
        }
      ],
      "name": "payoutNaive",
      "outputs": [],
      "stateMutability": "payable",
      "type": "function"
    },
    {
      "inputs": [
        {
          "internalType": "uint256[]",
          "name": "column_id",
          "type": "uint256[]"
        },
        {
          "internalType": "uint256[][]",
          "name": "columns",
          "type": "uint256[][]"
        },
        {
          "internalType": "uint256[]",
          "name": "_assetsCost",
          "type": "uint256[]"
        }
      ],
      "name": "payoutRepeatedColumns",
      "outputs": [],
      "stateMutability": "payable",
      "type": "function"
    },
    {
      "inputs": [
        {
          "internalType": "uint256[3][]",
          "name": "_payoutTriples",
          "type": "uint256[3][]"
        },
        {
          "internalType": "uint256[]",
          "name": "_assetsCost",
          "type": "uint256[]"
        }
      ],
      "name": "payoutSparse",
      "outputs": [],
      "stateMutability": "payable",
      "type": "function"
    }
  ],
  "bytecode": "0x60806040526000805560006001553480156200001a57600080fd5b50604051620017b9380380620017b9833981810160405281019062000040919062000347565b81516000819055508060018190555081600290805190602001906200006792919062000070565b505050620003ad565b828054828255906000526020600020908101928215620000ec579160200282015b82811115620000eb5782518260006101000a81548173ffffffffffffffffffffffffffffffffffffffff021916908373ffffffffffffffffffffffffffffffffffffffff1602179055509160200191906001019062000091565b5b509050620000fb9190620000ff565b5090565b5b808211156200011a57600081600090555060010162000100565b5090565b6000604051905090565b600080fd5b600080fd5b600080fd5b6000601f19601f8301169050919050565b7f4e487b7100000000000000000000000000000000000000000000000000000000600052604160045260246000fd5b620001828262000137565b810181811067ffffffffffffffff82111715620001a457620001a362000148565b5b80604052505050565b6000620001b96200011e565b9050620001c7828262000177565b919050565b600067ffffffffffffffff821115620001ea57620001e962000148565b5b602082029050602081019050919050565b600080fd5b600073ffffffffffffffffffffffffffffffffffffffff82169050919050565b60006200022d8262000200565b9050919050565b6200023f8162000220565b81146200024b57600080fd5b50565b6000815190506200025f8162000234565b92915050565b60006200027c6200027684620001cc565b620001ad565b90508083825260208201905060208402830185811115620002a257620002a1620001fb565b5b835b81811015620002cf5780620002ba88826200024e565b845260208401935050602081019050620002a4565b5050509392505050565b600082601f830112620002f157620002f062000132565b5b81516200030384826020860162000265565b91505092915050565b6000819050919050565b62000321816200030c565b81146200032d57600080fd5b50565b600081519050620003418162000316565b92915050565b6000806040838503121562000361576200036062000128565b5b600083015167ffffffffffffffff8111156200038257620003816200012d565b5b6200039085828601620002d9565b9250506020620003a38582860162000330565b9150509250929050565b6113fc80620003bd6000396000f3fe6080604052600436106100865760003560e01c806391f601191161005957806391f6011914610117578063d2eb502314610121578063e42c3fab1461013d578063e641bde114610159578063f8b2cb4f1461018257610086565b80630d5528c11461008b5780632f4fc808146100a75780633feb5f2b146100c35780636452037c14610100575b600080fd5b6100a560048036038101906100a09190610d47565b6101bf565b005b6100c160048036038101906100bc9190610e1e565b610389565b005b3480156100cf57600080fd5b506100ea60048036038101906100e59190610f08565b610516565b6040516100f79190610f76565b60405180910390f35b34801561010c57600080fd5b50610115610555565b005b61011f61056f565b005b61013b60048036038101906101369190610f91565b610717565b005b61015760048036038101906101529190611045565b6109ad565b005b34801561016557600080fd5b50610180600480360381019061017b91906110f2565b610af7565b005b34801561018e57600080fd5b506101a960048036038101906101a491906110f2565b610b74565b6040516101b6919061112e565b60405180910390f35b6102016040518060400160405280600781526020017f6c656e6774683d0000000000000000000000000000000000000000000000000081525085859050610bbd565b60005b8484905081101561038257600085858381811061022457610223611149565b5b90506060020160006003811061023d5761023c611149565b5b60200201359050600086868481811061025957610258611149565b5b90506060020160016003811061027257610271611149565b5b60200201359050600087878581811061028e5761028d611149565b5b9050606002016002600381106102a7576102a6611149565b5b602002013590506000818787868181106102c4576102c3611149565b5b905060200201356102d591906111a7565b90508060036000600286815481106102f0576102ef611149565b5b9060005260206000200160009054906101000a900473ffffffffffffffffffffffffffffffffffffffff1673ffffffffffffffffffffffffffffffffffffffff1673ffffffffffffffffffffffffffffffffffffffff168152602001908152602001600020600082825461036491906111e9565b9250508190555050505050808061037a9061121d565b915050610204565b5050505050565b60005b8484905081101561050d576000805b84849050811015610425578686848181106103b9576103b8611149565b5b90506020028101906103cb9190611274565b828181106103dc576103db611149565b5b905060200201358585838181106103f6576103f5611149565b5b9050602002013561040791906111a7565b8261041291906111e9565b91508061041e9061121d565b905061039b565b5060005b868690508110156104fa578289898381811061044857610447611149565b5b90506020020135036104e95781600360006002848154811061046d5761046c611149565b5b9060005260206000200160009054906101000a900473ffffffffffffffffffffffffffffffffffffffff1673ffffffffffffffffffffffffffffffffffffffff1673ffffffffffffffffffffffffffffffffffffffff16815260200190815260200160002060008282546104e191906111e9565b925050819055505b806104f39061121d565b9050610429565b5050806105069061121d565b905061038c565b50505050505050565b6002818154811061052657600080fd5b906000526020600020016000915054906101000a900473ffffffffffffffffffffffffffffffffffffffff1681565b600160008154809291906105689061121d565b9190505550565b60005b60005481101561071457600281815481106105905761058f611149565b5b9060005260206000200160009054906101000a900473ffffffffffffffffffffffffffffffffffffffff1673ffffffffffffffffffffffffffffffffffffffff166108fc60036000600285815481106105ec576105eb611149565b5b9060005260206000200160009054906101000a900473ffffffffffffffffffffffffffffffffffffffff1673ffffffffffffffffffffffffffffffffffffffff1673ffffffffffffffffffffffffffffffffffffffff168152602001908152602001600020549081150290604051600060405180830381858888f1935050505015801561067d573d6000803e3d6000fd5b506000600360006002848154811061069857610697611149565b5b9060005260206000200160009054906101000a900473ffffffffffffffffffffffffffffffffffffffff1673ffffffffffffffffffffffffffffffffffffffff1673ffffffffffffffffffffffffffffffffffffffff16815260200190815260200160002081905550808061070c9061121d565b915050610572565b50565b60008686600081811061072d5761072c611149565b5b905060200281019061073f9190611274565b9050905060008167ffffffffffffffff81111561075f5761075e6112d7565b5b60405190808252806020026020018201604052801561078d5781602001602082028036833780820191505090505b50905060005b8281101561085b576000805b600154811015610828578a8a828181106107bc576107bb611149565b5b90506020028101906107ce9190611274565b848181106107df576107de611149565b5b905060200201358787838181106107f9576107f8611149565b5b9050602002013561080a91906111a7565b8261081591906111e9565b9150806108219061121d565b905061079f565b508083838151811061083d5761083c611149565b5b60200260200101818152505050806108549061121d565b9050610793565b5060005b6000548110156109a2576000805b848110156108f55788888281811061088857610887611149565b5b905060200281019061089a9190611274565b848181106108ab576108aa611149565b5b905060200201358482815181106108c5576108c4611149565b5b60200260200101516108d791906111a7565b826108e291906111e9565b9150806108ee9061121d565b905061086d565b50600082905081600360006002848154811061091457610913611149565b5b9060005260206000200160009054906101000a900473ffffffffffffffffffffffffffffffffffffffff1673ffffffffffffffffffffffffffffffffffffffff1673ffffffffffffffffffffffffffffffffffffffff168152602001908152602001600020600082825461098891906111e9565b9250508190555050508061099b9061121d565b905061085f565b505050505050505050565b60005b600054811015610af0576000805b600154811015610a47578484828181106109db576109da611149565b5b905060200201358787838181106109f5576109f4611149565b5b9050602002810190610a079190611274565b85818110610a1857610a17611149565b5b90506020020135610a2991906111a7565b82610a3491906111e9565b915080610a409061121d565b90506109be565b50806003600060028581548110610a6157610a60611149565b5b9060005260206000200160009054906101000a900473ffffffffffffffffffffffffffffffffffffffff1673ffffffffffffffffffffffffffffffffffffffff1673ffffffffffffffffffffffffffffffffffffffff1681526020019081526020016000206000828254610ad591906111e9565b92505081905550508080610ae89061121d565b9150506109b0565b5050505050565b6002819080600181540180825580915050600190039060005260206000200160009091909190916101000a81548173ffffffffffffffffffffffffffffffffffffffff021916908373ffffffffffffffffffffffffffffffffffffffff160217905550600080815480929190610b6c9061121d565b919050555050565b6000600360008373ffffffffffffffffffffffffffffffffffffffff1673ffffffffffffffffffffffffffffffffffffffff168152602001908152602001600020549050919050565b610c558282604051602401610bd3929190611396565b6040516020818303038152906040527fb60e72cc000000000000000000000000000000000000000000000000000000007bffffffffffffffffffffffffffffffffffffffffffffffffffffffff19166020820180517bffffffffffffffffffffffffffffffffffffffffffffffffffffffff8381831617835250505050610c59565b5050565b60008151905060006a636f6e736f6c652e6c6f679050602083016000808483855afa5050505050565b600080fd5b600080fd5b600080fd5b600080fd5b600080fd5b60008083601f840112610cb157610cb0610c8c565b5b8235905067ffffffffffffffff811115610cce57610ccd610c91565b5b602083019150836060820283011115610cea57610ce9610c96565b5b9250929050565b60008083601f840112610d0757610d06610c8c565b5b8235905067ffffffffffffffff811115610d2457610d23610c91565b5b602083019150836020820283011115610d4057610d3f610c96565b5b9250929050565b60008060008060408587031215610d6157610d60610c82565b5b600085013567ffffffffffffffff811115610d7f57610d7e610c87565b5b610d8b87828801610c9b565b9450945050602085013567ffffffffffffffff811115610dae57610dad610c87565b5b610dba87828801610cf1565b925092505092959194509250565b60008083601f840112610dde57610ddd610c8c565b5b8235905067ffffffffffffffff811115610dfb57610dfa610c91565b5b602083019150836020820283011115610e1757610e16610c96565b5b9250929050565b60008060008060008060608789031215610e3b57610e3a610c82565b5b600087013567ffffffffffffffff811115610e5957610e58610c87565b5b610e6589828a01610cf1565b9650965050602087013567ffffffffffffffff811115610e8857610e87610c87565b5b610e9489828a01610dc8565b9450945050604087013567ffffffffffffffff811115610eb757610eb6610c87565b5b610ec389828a01610cf1565b92509250509295509295509295565b6000819050919050565b610ee581610ed2565b8114610ef057600080fd5b50565b600081359050610f0281610edc565b92915050565b600060208284031215610f1e57610f1d610c82565b5b6000610f2c84828501610ef3565b91505092915050565b600073ffffffffffffffffffffffffffffffffffffffff82169050919050565b6000610f6082610f35565b9050919050565b610f7081610f55565b82525050565b6000602082019050610f8b6000830184610f67565b92915050565b60008060008060008060608789031215610fae57610fad610c82565b5b600087013567ffffffffffffffff811115610fcc57610fcb610c87565b5b610fd889828a01610dc8565b9650965050602087013567ffffffffffffffff811115610ffb57610ffa610c87565b5b61100789828a01610dc8565b9450945050604087013567ffffffffffffffff81111561102a57611029610c87565b5b61103689828a01610cf1565b92509250509295509295509295565b6000806000806040858703121561105f5761105e610c82565b5b600085013567ffffffffffffffff81111561107d5761107c610c87565b5b61108987828801610dc8565b9450945050602085013567ffffffffffffffff8111156110ac576110ab610c87565b5b6110b887828801610cf1565b925092505092959194509250565b6110cf81610f55565b81146110da57600080fd5b50565b6000813590506110ec816110c6565b92915050565b60006020828403121561110857611107610c82565b5b6000611116848285016110dd565b91505092915050565b61112881610ed2565b82525050565b6000602082019050611143600083018461111f565b92915050565b7f4e487b7100000000000000000000000000000000000000000000000000000000600052603260045260246000fd5b7f4e487b7100000000000000000000000000000000000000000000000000000000600052601160045260246000fd5b60006111b282610ed2565b91506111bd83610ed2565b92508282026111cb81610ed2565b915082820484148315176111e2576111e1611178565b5b5092915050565b60006111f482610ed2565b91506111ff83610ed2565b925082820190508082111561121757611216611178565b5b92915050565b600061122882610ed2565b91507fffffffffffffffffffffffffffffffffffffffffffffffffffffffffffffffff820361125a57611259611178565b5b600182019050919050565b600080fd5b600080fd5b600080fd5b6000808335600160200384360303811261129157611290611265565b5b80840192508235915067ffffffffffffffff8211156112b3576112b261126a565b5b6020830192506020820236038313156112cf576112ce61126f565b5b509250929050565b7f4e487b7100000000000000000000000000000000000000000000000000000000600052604160045260246000fd5b600081519050919050565b600082825260208201905092915050565b60005b83811015611340578082015181840152602081019050611325565b60008484015250505050565b6000601f19601f8301169050919050565b600061136882611306565b6113728185611311565b9350611382818560208601611322565b61138b8161134c565b840191505092915050565b600060408201905081810360008301526113b0818561135d565b90506113bf602083018461111f565b939250505056fea26469706673582212204f29cab74845dd4f8af1aae9ef60d6eef89de68c42541a8220af857a414c2f2f64736f6c63430008120033",
  "linkReferences": {},
  "deployedLinkReferences": {}
}