{
  "_format": "hh-sol-artifact-1",
  "contractName": "PayoutContract",
  "sourceName": "contracts/Payout.sol",
  "abi": [
    {
      "inputs": [
        {
          "internalType": "address[]",
          "name": "_investors",
          "type": "address[]"
        },
        {
          "internalType": "uint256",
          "name": "_n_assets",
          "type": "uint256"
        }
      ],
      "stateMutability": "nonpayable",
      "type": "constructor"
    },
    {
      "inputs": [],
      "name": "addAsset",
      "outputs": [],
      "stateMutability": "nonpayable",
      "type": "function"
    },
    {
      "inputs": [
        {
          "internalType": "address",
          "name": "_investorAddress",
          "type": "address"
        }
      ],
      "name": "addInvestor",
      "outputs": [],
      "stateMutability": "nonpayable",
      "type": "function"
    },
    {
      "inputs": [],
      "name": "conductPayment",
      "outputs": [],
      "stateMutability": "payable",
      "type": "function"
    },
    {
      "inputs": [
        {
          "internalType": "address",
          "name": "_owner",
          "type": "address"
        }
      ],
      "name": "getBalance",
      "outputs": [
        {
          "internalType": "uint256",
          "name": "",
          "type": "uint256"
        }
      ],
      "stateMutability": "view",
      "type": "function"
    },
    {
      "inputs": [
        {
          "internalType": "uint256",
          "name": "",
          "type": "uint256"
        }
      ],
      "name": "investors",
      "outputs": [
        {
          "internalType": "address",
          "name": "",
          "type": "address"
        }
      ],
      "stateMutability": "view",
      "type": "function"
    },
    {
      "inputs": [
        {
          "internalType": "uint256[][]",
          "name": "L",
          "type": "uint256[][]"
        },
        {
          "internalType": "uint256[][]",
          "name": "R",
          "type": "uint256[][]"
        },
        {
          "internalType": "uint256[]",
          "name": "_assetsCost",
          "type": "uint256[]"
        }
      ],
      "name": "payoutLowRank",
      "outputs": [],
      "stateMutability": "payable",
      "type": "function"
    },
    {
      "inputs": [
        {
          "internalType": "uint256[][]",
          "name": "_payoutMatrix",
          "type": "uint256[][]"
        },
        {
          "internalType": "uint256[]",
          "name": "_assetsCost",
          "type": "uint256[]"
        }
      ],
      "name": "payoutNaive",
      "outputs": [],
      "stateMutability": "payable",
      "type": "function"
    },
    {
      "inputs": [
        {
          "internalType": "uint256[3][]",
          "name": "_payoutTriples",
          "type": "uint256[3][]"
        },
        {
          "internalType": "uint256[]",
          "name": "_assetsCost",
          "type": "uint256[]"
        }
      ],
      "name": "payoutSparse",
      "outputs": [],
      "stateMutability": "payable",
      "type": "function"
    }
  ],
  "bytecode": "0x60806040526000805560006001553480156200001a57600080fd5b506040516200154e3803806200154e833981810160405281019062000040919062000347565b81516000819055508060018190555081600290805190602001906200006792919062000070565b505050620003ad565b828054828255906000526020600020908101928215620000ec579160200282015b82811115620000eb5782518260006101000a81548173ffffffffffffffffffffffffffffffffffffffff021916908373ffffffffffffffffffffffffffffffffffffffff1602179055509160200191906001019062000091565b5b509050620000fb9190620000ff565b5090565b5b808211156200011a57600081600090555060010162000100565b5090565b6000604051905090565b600080fd5b600080fd5b600080fd5b6000601f19601f8301169050919050565b7f4e487b7100000000000000000000000000000000000000000000000000000000600052604160045260246000fd5b620001828262000137565b810181811067ffffffffffffffff82111715620001a457620001a362000148565b5b80604052505050565b6000620001b96200011e565b9050620001c7828262000177565b919050565b600067ffffffffffffffff821115620001ea57620001e962000148565b5b602082029050602081019050919050565b600080fd5b600073ffffffffffffffffffffffffffffffffffffffff82169050919050565b60006200022d8262000200565b9050919050565b6200023f8162000220565b81146200024b57600080fd5b50565b6000815190506200025f8162000234565b92915050565b60006200027c6200027684620001cc565b620001ad565b90508083825260208201905060208402830185811115620002a257620002a1620001fb565b5b835b81811015620002cf5780620002ba88826200024e565b845260208401935050602081019050620002a4565b5050509392505050565b600082601f830112620002f157620002f062000132565b5b81516200030384826020860162000265565b91505092915050565b6000819050919050565b62000321816200030c565b81146200032d57600080fd5b50565b600081519050620003418162000316565b92915050565b6000806040838503121562000361576200036062000128565b5b600083015167ffffffffffffffff8111156200038257620003816200012d565b5b6200039085828601620002d9565b9250506020620003a38582860162000330565b9150509250929050565b61119180620003bd6000396000f3fe60806040526004361061007b5760003560e01c8063d2eb50231161004e578063d2eb5023146100fa578063e42c3fab14610116578063e641bde114610132578063f8b2cb4f1461015b5761007b565b80630d5528c1146100805780633feb5f2b1461009c5780636452037c146100d957806391f60119146100f0575b600080fd5b61009a60048036038101906100959190610cbb565b610198565b005b3480156100a857600080fd5b506100c360048036038101906100be9190610d33565b610323565b6040516100d09190610da1565b60405180910390f35b3480156100e557600080fd5b506100ee610362565b005b6100f861037c565b005b610114600480360381019061010f9190610e9d565b610524565b005b610130600480360381019061012b9190610f44565b61079d565b005b34801561013e57600080fd5b5061015960048036038101906101549190610fe8565b6108de565b005b34801561016757600080fd5b50610182600480360381019061017d9190610fe8565b61095b565b60405161018f9190611024565b60405180910390f35b60005b825181101561031e5760008382815181106101b9576101b861103f565b5b60200260200101516000600381106101d4576101d361103f565b5b6020020151905060008483815181106101f0576101ef61103f565b5b602002602001015160016003811061020b5761020a61103f565b5b6020020151905060008584815181106102275761022661103f565b5b60200260200101516002600381106102425761024161103f565b5b6020020151905060008186848151811061025f5761025e61103f565b5b6020026020010151610271919061109d565b905080600360006002878154811061028c5761028b61103f565b5b9060005260206000200160009054906101000a900473ffffffffffffffffffffffffffffffffffffffff1673ffffffffffffffffffffffffffffffffffffffff1673ffffffffffffffffffffffffffffffffffffffff168152602001908152602001600020600082825461030091906110df565b9250508190555050505050808061031690611113565b91505061019b565b505050565b6002818154811061033357600080fd5b906000526020600020016000915054906101000a900473ffffffffffffffffffffffffffffffffffffffff1681565b6001600081548092919061037590611113565b9190505550565b60005b600054811015610521576002818154811061039d5761039c61103f565b5b9060005260206000200160009054906101000a900473ffffffffffffffffffffffffffffffffffffffff1673ffffffffffffffffffffffffffffffffffffffff166108fc60036000600285815481106103f9576103f861103f565b5b9060005260206000200160009054906101000a900473ffffffffffffffffffffffffffffffffffffffff1673ffffffffffffffffffffffffffffffffffffffff1673ffffffffffffffffffffffffffffffffffffffff168152602001908152602001600020549081150290604051600060405180830381858888f1935050505015801561048a573d6000803e3d6000fd5b50600060036000600284815481106104a5576104a461103f565b5b9060005260206000200160009054906101000a900473ffffffffffffffffffffffffffffffffffffffff1673ffffffffffffffffffffffffffffffffffffffff1673ffffffffffffffffffffffffffffffffffffffff16815260200190815260200160002081905550808061051990611113565b91505061037f565b50565b60008360008151811061053a5761053961103f565b5b602002602001015151905060008167ffffffffffffffff811115610561576105606109ce565b5b60405190808252806020026020018201604052801561058f5781602001602082028036833780820191505090505b50905060005b82811015610656576000805b600154811015610623578781815181106105be576105bd61103f565b5b602002602001015183815181106105d8576105d761103f565b5b60200260200101518682815181106105f3576105f261103f565b5b6020026020010151610605919061109d565b8261061091906110df565b91508061061c90611113565b90506105a1565b50808383815181106106385761063761103f565b5b602002602001018181525050508061064f90611113565b9050610595565b5060005b600054811015610795576000805b848110156106e8578681815181106106835761068261103f565b5b6020026020010151838151811061069d5761069c61103f565b5b60200260200101518482815181106106b8576106b761103f565b5b60200260200101516106ca919061109d565b826106d591906110df565b9150806106e190611113565b9050610668565b5060008290508160036000600284815481106107075761070661103f565b5b9060005260206000200160009054906101000a900473ffffffffffffffffffffffffffffffffffffffff1673ffffffffffffffffffffffffffffffffffffffff1673ffffffffffffffffffffffffffffffffffffffff168152602001908152602001600020600082825461077b91906110df565b9250508190555050508061078e90611113565b905061065a565b505050505050565b60005b6000548110156108d9576000805b600154811015610830578381815181106107cb576107ca61103f565b5b60200260200101518582815181106107e6576107e561103f565b5b60200260200101518481518110610800576107ff61103f565b5b6020026020010151610812919061109d565b8261081d91906110df565b91508061082990611113565b90506107ae565b5080600360006002858154811061084a5761084961103f565b5b9060005260206000200160009054906101000a900473ffffffffffffffffffffffffffffffffffffffff1673ffffffffffffffffffffffffffffffffffffffff1673ffffffffffffffffffffffffffffffffffffffff16815260200190815260200160002060008282546108be91906110df565b925050819055505080806108d190611113565b9150506107a0565b505050565b6002819080600181540180825580915050600190039060005260206000200160009091909190916101000a81548173ffffffffffffffffffffffffffffffffffffffff021916908373ffffffffffffffffffffffffffffffffffffffff16021790555060008081548092919061095390611113565b919050555050565b6000600360008373ffffffffffffffffffffffffffffffffffffffff1673ffffffffffffffffffffffffffffffffffffffff168152602001908152602001600020549050919050565b6000604051905090565b600080fd5b600080fd5b600080fd5b6000601f19601f8301169050919050565b7f4e487b7100000000000000000000000000000000000000000000000000000000600052604160045260246000fd5b610a06826109bd565b810181811067ffffffffffffffff82111715610a2557610a246109ce565b5b80604052505050565b6000610a386109a4565b9050610a4482826109fd565b919050565b600067ffffffffffffffff821115610a6457610a636109ce565b5b602082029050602081019050919050565b600080fd5b600067ffffffffffffffff821115610a9557610a946109ce565b5b602082029050919050565b6000819050919050565b610ab381610aa0565b8114610abe57600080fd5b50565b600081359050610ad081610aaa565b92915050565b6000610ae9610ae484610a7a565b610a2e565b90508060208402830185811115610b0357610b02610a75565b5b835b81811015610b2c5780610b188882610ac1565b845260208401935050602081019050610b05565b5050509392505050565b600082601f830112610b4b57610b4a6109b8565b5b6003610b58848285610ad6565b91505092915050565b6000610b74610b6f84610a49565b610a2e565b90508083825260208201905060608402830185811115610b9757610b96610a75565b5b835b81811015610bc05780610bac8882610b36565b845260208401935050606081019050610b99565b5050509392505050565b600082601f830112610bdf57610bde6109b8565b5b8135610bef848260208601610b61565b91505092915050565b600067ffffffffffffffff821115610c1357610c126109ce565b5b602082029050602081019050919050565b6000610c37610c3284610bf8565b610a2e565b90508083825260208201905060208402830185811115610c5a57610c59610a75565b5b835b81811015610c835780610c6f8882610ac1565b845260208401935050602081019050610c5c565b5050509392505050565b600082601f830112610ca257610ca16109b8565b5b8135610cb2848260208601610c24565b91505092915050565b60008060408385031215610cd257610cd16109ae565b5b600083013567ffffffffffffffff811115610cf057610cef6109b3565b5b610cfc85828601610bca565b925050602083013567ffffffffffffffff811115610d1d57610d1c6109b3565b5b610d2985828601610c8d565b9150509250929050565b600060208284031215610d4957610d486109ae565b5b6000610d5784828501610ac1565b91505092915050565b600073ffffffffffffffffffffffffffffffffffffffff82169050919050565b6000610d8b82610d60565b9050919050565b610d9b81610d80565b82525050565b6000602082019050610db66000830184610d92565b92915050565b600067ffffffffffffffff821115610dd757610dd66109ce565b5b602082029050602081019050919050565b6000610dfb610df684610dbc565b610a2e565b90508083825260208201905060208402830185811115610e1e57610e1d610a75565b5b835b81811015610e6557803567ffffffffffffffff811115610e4357610e426109b8565b5b808601610e508982610c8d565b85526020850194505050602081019050610e20565b5050509392505050565b600082601f830112610e8457610e836109b8565b5b8135610e94848260208601610de8565b91505092915050565b600080600060608486031215610eb657610eb56109ae565b5b600084013567ffffffffffffffff811115610ed457610ed36109b3565b5b610ee086828701610e6f565b935050602084013567ffffffffffffffff811115610f0157610f006109b3565b5b610f0d86828701610e6f565b925050604084013567ffffffffffffffff811115610f2e57610f2d6109b3565b5b610f3a86828701610c8d565b9150509250925092565b60008060408385031215610f5b57610f5a6109ae565b5b600083013567ffffffffffffffff811115610f7957610f786109b3565b5b610f8585828601610e6f565b925050602083013567ffffffffffffffff811115610fa657610fa56109b3565b5b610fb285828601610c8d565b9150509250929050565b610fc581610d80565b8114610fd057600080fd5b50565b600081359050610fe281610fbc565b92915050565b600060208284031215610ffe57610ffd6109ae565b5b600061100c84828501610fd3565b91505092915050565b61101e81610aa0565b82525050565b60006020820190506110396000830184611015565b92915050565b7f4e487b7100000000000000000000000000000000000000000000000000000000600052603260045260246000fd5b7f4e487b7100000000000000000000000000000000000000000000000000000000600052601160045260246000fd5b60006110a882610aa0565b91506110b383610aa0565b92508282026110c181610aa0565b915082820484148315176110d8576110d761106e565b5b5092915050565b60006110ea82610aa0565b91506110f583610aa0565b925082820190508082111561110d5761110c61106e565b5b92915050565b600061111e82610aa0565b91507fffffffffffffffffffffffffffffffffffffffffffffffffffffffffffffffff82036111505761114f61106e565b5b60018201905091905056fea2646970667358221220186cfc4430790d40fe630ae2e48f7bf9c8aa080550399fde1d4d40532935dd3d64736f6c63430008120033",
  "linkReferences": {},
  "deployedLinkReferences": {}
}