{
  "_format": "hh-sol-artifact-1",
  "contractName": "Lock",
  "sourceName": "contracts/Lock.sol",
  "abi": [
    {
      "inputs": [
        {
          "internalType": "uint256[]",
          "name": "arr",
          "type": "uint256[]"
        }
      ],
      "stateMutability": "nonpayable",
      "type": "constructor"
    },
    {
      "inputs": [],
      "name": "someLoop",
      "outputs": [],
      "stateMutability": "nonpayable",
      "type": "function"
    },
    {
      "inputs": [],
      "name": "someLoop2",
      "outputs": [],
      "stateMutability": "nonpayable",
      "type": "function"
    }
  ],
  "bytecode": "0x6080604052604051806101400160405280600160ff168152602001600260ff168152602001600360ff168152602001600460ff168152602001600560ff168152602001600660ff168152602001600760ff168152602001600860ff168152602001600960ff168152602001600a60ff16815250600090600a610082929190610114565b5034801561008f57600080fd5b506040516105e93803806105e983398181016040528101906100b19190610326565b60005b815181101561010d578181815181106100d0576100cf61036f565b5b6020026020010151600082815481106100ec576100eb61036f565b5b90600052602060002001819055508080610105906103cd565b9150506100b4565b5050610415565b828054828255906000526020600020908101928215610155579160200282015b82811115610154578251829060ff16905591602001919060010190610134565b5b5090506101629190610166565b5090565b5b8082111561017f576000816000905550600101610167565b5090565b6000604051905090565b600080fd5b600080fd5b600080fd5b6000601f19601f8301169050919050565b7f4e487b7100000000000000000000000000000000000000000000000000000000600052604160045260246000fd5b6101e58261019c565b810181811067ffffffffffffffff82111715610204576102036101ad565b5b80604052505050565b6000610217610183565b905061022382826101dc565b919050565b600067ffffffffffffffff821115610243576102426101ad565b5b602082029050602081019050919050565b600080fd5b6000819050919050565b61026c81610259565b811461027757600080fd5b50565b60008151905061028981610263565b92915050565b60006102a261029d84610228565b61020d565b905080838252602082019050602084028301858111156102c5576102c4610254565b5b835b818110156102ee57806102da888261027a565b8452602084019350506020810190506102c7565b5050509392505050565b600082601f83011261030d5761030c610197565b5b815161031d84826020860161028f565b91505092915050565b60006020828403121561033c5761033b61018d565b5b600082015167ffffffffffffffff81111561035a57610359610192565b5b610366848285016102f8565b91505092915050565b7f4e487b7100000000000000000000000000000000000000000000000000000000600052603260045260246000fd5b7f4e487b7100000000000000000000000000000000000000000000000000000000600052601160045260246000fd5b60006103d882610259565b91507fffffffffffffffffffffffffffffffffffffffffffffffffffffffffffffffff820361040a5761040961039e565b5b600182019050919050565b6101c5806104246000396000f3fe608060405234801561001057600080fd5b50600436106100365760003560e01c8063f93423cc1461003b578063f969764a14610045575b600080fd5b61004361004f565b005b61004d610096565b005b60005b600080549050811015610093576000808281548110610074576100736100df565b5b90600052602060002001819055508061008c90610147565b9050610052565b50565b60005b6000805490508110156100dc5760008082815481106100bb576100ba6100df565b5b906000526020600020018190555080806100d490610147565b915050610099565b50565b7f4e487b7100000000000000000000000000000000000000000000000000000000600052603260045260246000fd5b7f4e487b7100000000000000000000000000000000000000000000000000000000600052601160045260246000fd5b6000819050919050565b60006101528261013d565b91507fffffffffffffffffffffffffffffffffffffffffffffffffffffffffffffffff82036101845761018361010e565b5b60018201905091905056fea2646970667358221220d437de3f76c200abee3b49dcdbf5d285440344f1e869e9cd83fe44578114fa1664736f6c63430008120033",
  "linkReferences": {},
  "deployedLinkReferences": {}
}